{"abi":[{"type":"constructor","inputs":[{"name":"_identityRegistry","type":"address","internalType":"address"}],"stateMutability":"nonpayable"},{"type":"function","name":"agentValidations","inputs":[{"name":"","type":"uint256","internalType":"uint256"},{"name":"","type":"uint256","internalType":"uint256"}],"outputs":[{"name":"","type":"bytes32","internalType":"bytes32"}],"stateMutability":"view"},{"type":"function","name":"getAgentValidations","inputs":[{"name":"agentId","type":"uint256","internalType":"uint256"}],"outputs":[{"name":"requestHashes","type":"bytes32[]","internalType":"bytes32[]"}],"stateMutability":"view"},{"type":"function","name":"getIdentityRegistry","inputs":[],"outputs":[{"name":"","type":"address","internalType":"address"}],"stateMutability":"view"},{"type":"function","name":"getSummary","inputs":[{"name":"agentId","type":"uint256","internalType":"uint256"},{"name":"validatorAddresses","type":"address[]","internalType":"address[]"},{"name":"tag","type":"bytes32","internalType":"bytes32"}],"outputs":[{"name":"count","type":"uint64","internalType":"uint64"},{"name":"avgResponse","type":"uint8","internalType":"uint8"}],"stateMutability":"view"},{"type":"function","name":"getValidationStatus","inputs":[{"name":"requestHash","type":"bytes32","internalType":"bytes32"}],"outputs":[{"name":"validatorAddress","type":"address","internalType":"address"},{"name":"agentId","type":"uint256","internalType":"uint256"},{"name":"response","type":"uint8","internalType":"uint8"},{"name":"tag","type":"bytes32","internalType":"bytes32"},{"name":"lastUpdate","type":"uint256","internalType":"uint256"}],"stateMutability":"view"},{"type":"function","name":"getValidatorRequests","inputs":[{"name":"validatorAddress","type":"address","internalType":"address"}],"outputs":[{"name":"requestHashes","type":"bytes32[]","internalType":"bytes32[]"}],"stateMutability":"view"},{"type":"function","name":"identityRegistry","inputs":[],"outputs":[{"name":"","type":"address","internalType":"address"}],"stateMutability":"view"},{"type":"function","name":"validationRequest","inputs":[{"name":"validatorAddress","type":"address","internalType":"address"},{"name":"agentId","type":"uint256","internalType":"uint256"},{"name":"requestUri","type":"string","internalType":"string"},{"name":"requestHash","type":"bytes32","internalType":"bytes32"}],"outputs":[],"stateMutability":"nonpayable"},{"type":"function","name":"validationResponse","inputs":[{"name":"requestHash","type":"bytes32","internalType":"bytes32"},{"name":"response","type":"uint8","internalType":"uint8"},{"name":"responseUri","type":"string","internalType":"string"},{"name":"responseHash","type":"bytes32","internalType":"bytes32"},{"name":"tag","type":"bytes32","internalType":"bytes32"}],"outputs":[],"stateMutability":"nonpayable"},{"type":"function","name":"validations","inputs":[{"name":"","type":"bytes32","internalType":"bytes32"}],"outputs":[{"name":"requestHash","type":"bytes32","internalType":"bytes32"},{"name":"validatorAddress","type":"address","internalType":"address"},{"name":"agentId","type":"uint256","internalType":"uint256"},{"name":"response","type":"uint8","internalType":"uint8"},{"name":"tag","type":"bytes32","internalType":"bytes32"},{"name":"lastUpdate","type":"uint256","internalType":"uint256"}],"stateMutability":"view"},{"type":"function","name":"validatorRequests","inputs":[{"name":"","type":"address","internalType":"address"},{"name":"","type":"uint256","internalType":"uint256"}],"outputs":[{"name":"","type":"bytes32","internalType":"bytes32"}],"stateMutability":"view"},{"type":"event","name":"ValidationRequest","inputs":[{"name":"validatorAddress","type":"address","indexed":true,"internalType":"address"},{"name":"agentId","type":"uint256","indexed":true,"internalType":"uint256"},{"name":"requestUri","type":"string","indexed":false,"internalType":"string"},{"name":"requestHash","type":"bytes32","indexed":true,"internalType":"bytes32"}],"anonymous":false},{"type":"event","name":"ValidationResponse","inputs":[{"name":"validatorAddress","type":"address","indexed":true,"internalType":"address"},{"name":"agentId","type":"uint256","indexed":true,"internalType":"uint256"},{"name":"requestHash","type":"bytes32","indexed":true,"internalType":"bytes32"},{"name":"response","type":"uint8","indexed":false,"internalType":"uint8"},{"name":"responseUri","type":"string","indexed":false,"internalType":"string"},{"name":"tag","type":"bytes32","indexed":false,"internalType":"bytes32"}],"anonymous":false}],"bytecode":{"object":"0x60a060405234801562000010575f80fd5b5060405162001686380380620016868339818101604052810190620000369190620000d6565b8073ffffffffffffffffffffffffffffffffffffffff1660808173ffffffffffffffffffffffffffffffffffffffff16815250505062000106565b5f80fd5b5f73ffffffffffffffffffffffffffffffffffffffff82169050919050565b5f620000a08262000075565b9050919050565b620000b28162000094565b8114620000bd575f80fd5b50565b5f81519050620000d081620000a7565b92915050565b5f60208284031215620000ee57620000ed62000071565b5b5f620000fd84828501620000c0565b91505092915050565b608051611560620001265f395f818161027b01526109aa01526115605ff3fe608060405234801561000f575f80fd5b50600436106100a7575f3560e01c8063aaf400c41161006f578063aaf400c414610176578063bc4d861b14610192578063d395a2b3146101b0578063e28c3802146101e0578063f75213b414610215578063ff2febfc14610245576100a7565b8063134e18f4146100ab57806330e5993a146100c95780634bf3158c146100e55780638d5d0c2d14610115578063a0aa15a114610145575b5f80fd5b6100b3610279565b6040516100c09190610b35565b60405180910390f35b6100e360048036038101906100de9190610c20565b61029d565b005b6100ff60048036038101906100fa9190610ce0565b610460565b60405161010c9190610dc2565b60405180910390f35b61012f600480360381019061012a9190610e15565b6104f3565b60405161013c9190610dc2565b60405180910390f35b61015f600480360381019061015a9190610e95565b61055a565b60405161016d929190610f37565b60405180910390f35b610190600480360381019061018b9190610f5e565b61077b565b005b61019a6109a7565b6040516101a79190610b35565b60405180910390f35b6101ca60048036038101906101c59190610fe2565b6109ce565b6040516101d7919061102f565b60405180910390f35b6101fa60048036038101906101f59190611048565b6109f9565b60405161020c96959493929190611082565b60405180910390f35b61022f600480360381019061022a91906110e1565b610a5b565b60405161023c919061102f565b60405180910390f35b61025f600480360381019061025a9190611048565b610a86565b60405161027095949392919061111f565b60405180910390f35b7f000000000000000000000000000000000000000000000000000000000000000081565b5f805f8881526020019081526020015f2090505f801b815f0154036102f7576040517f08c379a00000000000000000000000000000000000000000000000000000000081526004016102ee906111ca565b60405180910390fd5b3373ffffffffffffffffffffffffffffffffffffffff16816001015f9054906101000a900473ffffffffffffffffffffffffffffffffffffffff1673ffffffffffffffffffffffffffffffffffffffff1614610388576040517f08c379a000000000000000000000000000000000000000000000000000000000815260040161037f90611232565b60405180910390fd5b60648660ff1611156103cf576040517f08c379a00000000000000000000000000000000000000000000000000000000081526004016103c69061129a565b60405180910390fd5b85816003015f6101000a81548160ff021916908360ff1602179055508181600401819055504281600501819055508681600201543373ffffffffffffffffffffffffffffffffffffffff167fcc61e07d65464186112fdaddb4b11ccef1928644b11f17e2864b38b4511956718989898860405161044f9493929190611302565b60405180910390a450505050505050565b606060025f8373ffffffffffffffffffffffffffffffffffffffff1673ffffffffffffffffffffffffffffffffffffffff1681526020019081526020015f208054806020026020016040519081016040528092919081815260200182805480156104e757602002820191905f5260205f20905b8154815260200190600101908083116104d3575b50505050509050919050565b606060015f8381526020019081526020015f2080548060200260200160405190810160405280929190818152602001828054801561054e57602002820191905f5260205f20905b81548152602001906001019080831161053a575b50505050509050919050565b5f805f8092505f60015f8981526020019081526020015f208054806020026020016040519081016040528092919081815260200182805480156105ba57602002820191905f5260205f20905b8154815260200190600101908083116105a6575b505050505090505f5b815181101561073f575f805f8484815181106105e2576105e1611340565b5b602002602001015181526020019081526020015f2090505f8989905011156106ba575f805b8a8a90508110156106ab578a8a8281811061062557610624611340565b5b905060200201602081019061063a9190610ce0565b73ffffffffffffffffffffffffffffffffffffffff16836001015f9054906101000a900473ffffffffffffffffffffffffffffffffffffffff1673ffffffffffffffffffffffffffffffffffffffff160361069857600191506106ab565b80806106a39061139a565b915050610607565b50806106b857505061072c565b505b5f801b87141580156106d0575086816004015414155b156106db575061072c565b5f816003015f9054906101000a900460ff1660ff16036106fb575061072c565b806003015f9054906101000a900460ff1660ff168461071a91906113e1565b9350858061072790611414565b965050505b80806107379061139a565b9150506105c3565b505f8467ffffffffffffffff1611610757575f61076e565b8367ffffffffffffffff168261076d9190611470565b5b9250505094509492505050565b5f801b5f808381526020019081526020015f205f0154146107d1576040517f08c379a00000000000000000000000000000000000000000000000000000000081526004016107c8906114ea565b60405180910390fd5b6040518060c001604052808281526020018673ffffffffffffffffffffffffffffffffffffffff1681526020018581526020015f60ff1681526020015f801b8152602001428152505f808381526020019081526020015f205f820151815f01556020820151816001015f6101000a81548173ffffffffffffffffffffffffffffffffffffffff021916908373ffffffffffffffffffffffffffffffffffffffff160217905550604082015181600201556060820151816003015f6101000a81548160ff021916908360ff1602179055506080820151816004015560a0820151816005015590505060015f8581526020019081526020015f2081908060018154018082558091505060019003905f5260205f20015f909190919091505560025f8673ffffffffffffffffffffffffffffffffffffffff1673ffffffffffffffffffffffffffffffffffffffff1681526020019081526020015f2081908060018154018082558091505060019003905f5260205f20015f909190919091505580848673ffffffffffffffffffffffffffffffffffffffff167f530436c3634a98e1e626b0898be2f1e9980cc1bd2a78c07a0aba52d0a48a50598686604051610998929190611508565b60405180910390a45050505050565b5f7f0000000000000000000000000000000000000000000000000000000000000000905090565b6002602052815f5260405f2081815481106109e7575f80fd5b905f5260205f20015f91509150505481565b5f602052805f5260405f205f91509050805f015490806001015f9054906101000a900473ffffffffffffffffffffffffffffffffffffffff1690806002015490806003015f9054906101000a900460ff16908060040154908060050154905086565b6001602052815f5260405f208181548110610a74575f80fd5b905f5260205f20015f91509150505481565b5f805f805f805f808881526020019081526020015f209050806001015f9054906101000a900473ffffffffffffffffffffffffffffffffffffffff168160020154826003015f9054906101000a900460ff1683600401548460050154955095509550955095505091939590929450565b5f73ffffffffffffffffffffffffffffffffffffffff82169050919050565b5f610b1f82610af6565b9050919050565b610b2f81610b15565b82525050565b5f602082019050610b485f830184610b26565b92915050565b5f80fd5b5f80fd5b5f819050919050565b610b6881610b56565b8114610b72575f80fd5b50565b5f81359050610b8381610b5f565b92915050565b5f60ff82169050919050565b610b9e81610b89565b8114610ba8575f80fd5b50565b5f81359050610bb981610b95565b92915050565b5f80fd5b5f80fd5b5f80fd5b5f8083601f840112610be057610bdf610bbf565b5b8235905067ffffffffffffffff811115610bfd57610bfc610bc3565b5b602083019150836001820283011115610c1957610c18610bc7565b5b9250929050565b5f805f805f8060a08789031215610c3a57610c39610b4e565b5b5f610c4789828a01610b75565b9650506020610c5889828a01610bab565b955050604087013567ffffffffffffffff811115610c7957610c78610b52565b5b610c8589828a01610bcb565b94509450506060610c9889828a01610b75565b9250506080610ca989828a01610b75565b9150509295509295509295565b610cbf81610b15565b8114610cc9575f80fd5b50565b5f81359050610cda81610cb6565b92915050565b5f60208284031215610cf557610cf4610b4e565b5b5f610d0284828501610ccc565b91505092915050565b5f81519050919050565b5f82825260208201905092915050565b5f819050602082019050919050565b610d3d81610b56565b82525050565b5f610d4e8383610d34565b60208301905092915050565b5f602082019050919050565b5f610d7082610d0b565b610d7a8185610d15565b9350610d8583610d25565b805f5b83811015610db5578151610d9c8882610d43565b9750610da783610d5a565b925050600181019050610d88565b5085935050505092915050565b5f6020820190508181035f830152610dda8184610d66565b905092915050565b5f819050919050565b610df481610de2565b8114610dfe575f80fd5b50565b5f81359050610e0f81610deb565b92915050565b5f60208284031215610e2a57610e29610b4e565b5b5f610e3784828501610e01565b91505092915050565b5f8083601f840112610e5557610e54610bbf565b5b8235905067ffffffffffffffff811115610e7257610e71610bc3565b5b602083019150836020820283011115610e8e57610e8d610bc7565b5b9250929050565b5f805f8060608587031215610ead57610eac610b4e565b5b5f610eba87828801610e01565b945050602085013567ffffffffffffffff811115610edb57610eda610b52565b5b610ee787828801610e40565b93509350506040610efa87828801610b75565b91505092959194509250565b5f67ffffffffffffffff82169050919050565b610f2281610f06565b82525050565b610f3181610b89565b82525050565b5f604082019050610f4a5f830185610f19565b610f576020830184610f28565b9392505050565b5f805f805f60808688031215610f7757610f76610b4e565b5b5f610f8488828901610ccc565b9550506020610f9588828901610e01565b945050604086013567ffffffffffffffff811115610fb657610fb5610b52565b5b610fc288828901610bcb565b93509350506060610fd588828901610b75565b9150509295509295909350565b5f8060408385031215610ff857610ff7610b4e565b5b5f61100585828601610ccc565b925050602061101685828601610e01565b9150509250929050565b61102981610b56565b82525050565b5f6020820190506110425f830184611020565b92915050565b5f6020828403121561105d5761105c610b4e565b5b5f61106a84828501610b75565b91505092915050565b61107c81610de2565b82525050565b5f60c0820190506110955f830189611020565b6110a26020830188610b26565b6110af6040830187611073565b6110bc6060830186610f28565b6110c96080830185611020565b6110d660a0830184611073565b979650505050505050565b5f80604083850312156110f7576110f6610b4e565b5b5f61110485828601610e01565b925050602061111585828601610e01565b9150509250929050565b5f60a0820190506111325f830188610b26565b61113f6020830187611073565b61114c6040830186610f28565b6111596060830185611020565b6111666080830184611073565b9695505050505050565b5f82825260208201905092915050565b7f52657175657374206e6f7420666f756e640000000000000000000000000000005f82015250565b5f6111b4601183611170565b91506111bf82611180565b602082019050919050565b5f6020820190508181035f8301526111e1816111a8565b9050919050565b7f4e6f74207468652064657369676e617465642076616c696461746f72000000005f82015250565b5f61121c601c83611170565b9150611227826111e8565b602082019050919050565b5f6020820190508181035f83015261124981611210565b9050919050565b7f526573706f6e7365206d75737420626520302d313030000000000000000000005f82015250565b5f611284601683611170565b915061128f82611250565b602082019050919050565b5f6020820190508181035f8301526112b181611278565b9050919050565b828183375f83830152505050565b5f601f19601f8301169050919050565b5f6112e18385611170565b93506112ee8385846112b8565b6112f7836112c6565b840190509392505050565b5f6060820190506113155f830187610f28565b81810360208301526113288185876112d6565b90506113376040830184611020565b95945050505050565b7f4e487b71000000000000000000000000000000000000000000000000000000005f52603260045260245ffd5b7f4e487b71000000000000000000000000000000000000000000000000000000005f52601160045260245ffd5b5f6113a482610de2565b91507fffffffffffffffffffffffffffffffffffffffffffffffffffffffffffffffff82036113d6576113d561136d565b5b600182019050919050565b5f6113eb82610de2565b91506113f683610de2565b925082820190508082111561140e5761140d61136d565b5b92915050565b5f61141e82610f06565b915067ffffffffffffffff82036114385761143761136d565b5b600182019050919050565b7f4e487b71000000000000000000000000000000000000000000000000000000005f52601260045260245ffd5b5f61147a82610de2565b915061148583610de2565b92508261149557611494611443565b5b828204905092915050565b7f52657175657374206861736820616c72656164792065786973747300000000005f82015250565b5f6114d4601b83611170565b91506114df826114a0565b602082019050919050565b5f6020820190508181035f830152611501816114c8565b9050919050565b5f6020820190508181035f8301526115218184866112d6565b9050939250505056fea26469706673582212203aa9230a62e2720471ba610ee80f327159e51f7e965be101df6d90156b06348b64736f6c63430008140033","linkReferences":{}},"methodIdentifiers":{"agentValidations(uint256,uint256)":"f75213b4","getAgentValidations(uint256)":"8d5d0c2d","getIdentityRegistry()":"bc4d861b","getSummary(uint256,address[],bytes32)":"a0aa15a1","getValidationStatus(bytes32)":"ff2febfc","getValidatorRequests(address)":"4bf3158c","identityRegistry()":"134e18f4","validationRequest(address,uint256,string,bytes32)":"aaf400c4","validationResponse(bytes32,uint8,string,bytes32,bytes32)":"30e5993a","validations(bytes32)":"e28c3802","validatorRequests(address,uint256)":"d395a2b3"},"id":22}