{"abi":[{"type":"constructor","inputs":[{"name":"_identityRegistry","type":"address","internalType":"address"}],"stateMutability":"nonpayable"},{"type":"function","name":"appendResponse","inputs":[{"name":"agentId","type":"uint256","internalType":"uint256"},{"name":"clientAddress","type":"address","internalType":"address"},{"name":"feedbackIndex","type":"uint64","internalType":"uint64"},{"name":"responseUri","type":"string","internalType":"string"},{"name":"responseHash","type":"bytes32","internalType":"bytes32"}],"outputs":[],"stateMutability":"nonpayable"},{"type":"function","name":"clients","inputs":[{"name":"","type":"uint256","internalType":"uint256"},{"name":"","type":"uint256","internalType":"uint256"}],"outputs":[{"name":"","type":"address","internalType":"address"}],"stateMutability":"view"},{"type":"function","name":"feedback","inputs":[{"name":"","type":"uint256","internalType":"uint256"},{"name":"","type":"address","internalType":"address"},{"name":"","type":"uint256","internalType":"uint256"}],"outputs":[{"name":"score","type":"uint8","internalType":"uint8"},{"name":"tag1","type":"bytes32","internalType":"bytes32"},{"name":"tag2","type":"bytes32","internalType":"bytes32"},{"name":"feedbackIndex","type":"uint64","internalType":"uint64"},{"name":"isRevoked","type":"bool","internalType":"bool"}],"stateMutability":"view"},{"type":"function","name":"getClients","inputs":[{"name":"agentId","type":"uint256","internalType":"uint256"}],"outputs":[{"name":"","type":"address[]","internalType":"address[]"}],"stateMutability":"view"},{"type":"function","name":"getIdentityRegistry","inputs":[],"outputs":[{"name":"","type":"address","internalType":"address"}],"stateMutability":"view"},{"type":"function","name":"getLastIndex","inputs":[{"name":"agentId","type":"uint256","internalType":"uint256"},{"name":"clientAddress","type":"address","internalType":"address"}],"outputs":[{"name":"","type":"uint64","internalType":"uint64"}],"stateMutability":"view"},{"type":"function","name":"getSummary","inputs":[{"name":"agentId","type":"uint256","internalType":"uint256"},{"name":"clientAddresses","type":"address[]","internalType":"address[]"},{"name":"tag1","type":"bytes32","internalType":"bytes32"},{"name":"tag2","type":"bytes32","internalType":"bytes32"}],"outputs":[{"name":"count","type":"uint64","internalType":"uint64"},{"name":"averageScore","type":"uint8","internalType":"uint8"}],"stateMutability":"view"},{"type":"function","name":"giveFeedback","inputs":[{"name":"agentId","type":"uint256","internalType":"uint256"},{"name":"score","type":"uint8","internalType":"uint8"},{"name":"tag1","type":"bytes32","internalType":"bytes32"},{"name":"tag2","type":"bytes32","internalType":"bytes32"},{"name":"fileuri","type":"string","internalType":"string"},{"name":"filehash","type":"bytes32","internalType":"bytes32"},{"name":"feedbackAuth","type":"bytes","internalType":"bytes"}],"outputs":[],"stateMutability":"nonpayable"},{"type":"function","name":"identityRegistry","inputs":[],"outputs":[{"name":"","type":"address","internalType":"address"}],"stateMutability":"view"},{"type":"function","name":"readFeedback","inputs":[{"name":"agentId","type":"uint256","internalType":"uint256"},{"name":"clientAddress","type":"address","internalType":"address"},{"name":"index","type":"uint64","internalType":"uint64"}],"outputs":[{"name":"score","type":"uint8","internalType":"uint8"},{"name":"tag1","type":"bytes32","internalType":"bytes32"},{"name":"tag2","type":"bytes32","internalType":"bytes32"},{"name":"isRevoked","type":"bool","internalType":"bool"}],"stateMutability":"view"},{"type":"function","name":"responseCount","inputs":[{"name":"","type":"bytes32","internalType":"bytes32"},{"name":"","type":"uint256","internalType":"uint256"},{"name":"","type":"address","internalType":"address"}],"outputs":[{"name":"","type":"uint64","internalType":"uint64"}],"stateMutability":"view"},{"type":"function","name":"revokeFeedback","inputs":[{"name":"agentId","type":"uint256","internalType":"uint256"},{"name":"feedbackIndex","type":"uint64","internalType":"uint64"}],"outputs":[],"stateMutability":"nonpayable"},{"type":"event","name":"FeedbackRevoked","inputs":[{"name":"agentId","type":"uint256","indexed":true,"internalType":"uint256"},{"name":"clientAddress","type":"address","indexed":true,"internalType":"address"},{"name":"feedbackIndex","type":"uint64","indexed":true,"internalType":"uint64"}],"anonymous":false},{"type":"event","name":"NewFeedback","inputs":[{"name":"agentId","type":"uint256","indexed":true,"internalType":"uint256"},{"name":"clientAddress","type":"address","indexed":true,"internalType":"address"},{"name":"score","type":"uint8","indexed":false,"internalType":"uint8"},{"name":"tag1","type":"bytes32","indexed":true,"internalType":"bytes32"},{"name":"tag2","type":"bytes32","indexed":false,"internalType":"bytes32"},{"name":"fileuri","type":"string","indexed":false,"internalType":"string"},{"name":"filehash","type":"bytes32","indexed":false,"internalType":"bytes32"}],"anonymous":false},{"type":"event","name":"ResponseAppended","inputs":[{"name":"agentId","type":"uint256","indexed":true,"internalType":"uint256"},{"name":"clientAddress","type":"address","indexed":true,"internalType":"address"},{"name":"feedbackIndex","type":"uint64","indexed":false,"internalType":"uint64"},{"name":"responder","type":"address","indexed":true,"internalType":"address"},{"name":"responseUri","type":"string","indexed":false,"internalType":"string"}],"anonymous":false}],"bytecode":{"object":"0x60a060405234801562000010575f80fd5b5060405162002181380380620021818339818101604052810190620000369190620000d6565b8073ffffffffffffffffffffffffffffffffffffffff1660808173ffffffffffffffffffffffffffffffffffffffff16815250505062000106565b5f80fd5b5f73ffffffffffffffffffffffffffffffffffffffff82169050919050565b5f620000a08262000075565b9050919050565b620000b28162000094565b8114620000bd575f80fd5b50565b5f81519050620000d081620000a7565b92915050565b5f60208284031215620000ee57620000ed62000071565b5b5f620000fd84828501620000c0565b91505092915050565b6080516120546200012d5f395f8181610322015281816104a10152610de001526120545ff3fe608060405234801561000f575f80fd5b50600436106100b2575f3560e01c80634ab3ca991161006f5780634ab3ca99146101b8578063bc4d861b146101d4578063c2349ab2146101f2578063c7a808671461020e578063dfd122df1461023e578063f2d817591461026e576100b2565b806302839bed146100b6578063134e18f4146100ea578063155e5bbd14610108578063232b08101461012457806331259cff1461015757806342dd519c14610188575b5f80fd5b6100d060048036038101906100cb9190611134565b61029e565b6040516100e19594939291906111f3565b60405180910390f35b6100f2610320565b6040516100ff9190611253565b60405180910390f35b610122600480360381019061011d9190611459565b610344565b005b61013e6004803603810190610139919061155c565b610875565b60405161014e94939291906115ac565b60405180910390f35b610171600480360381019061016c9190611644565b610982565b60405161017f9291906116c8565b60405180910390f35b6101a2600480360381019061019d91906116ef565b610c0a565b6040516101af91906117d1565b60405180910390f35b6101d260048036038101906101cd91906117f1565b610ca6565b005b6101dc610ddd565b6040516101e99190611253565b60405180910390f35b61020c6004803603810190610207919061182f565b610e04565b005b610228600480360381019061022391906118c5565b610fba565b6040516102359190611915565b60405180910390f35b6102586004803603810190610253919061192e565b610ff6565b6040516102659190611253565b60405180910390f35b6102886004803603810190610283919061196c565b61103e565b6040516102959190611915565b60405180910390f35b5f602052825f5260405f20602052815f5260405f2081815481106102c0575f80fd5b905f5260205f2090600402015f925092505050805f015f9054906101000a900460ff1690806001015490806002015490806003015f9054906101000a900467ffffffffffffffff16908060030160089054906101000a900460ff16905085565b7f000000000000000000000000000000000000000000000000000000000000000081565b60648760ff16111561038b576040517f08c379a000000000000000000000000000000000000000000000000000000000815260040161038290611a04565b60405180910390fd5b5f818060200190518101906103a09190611b13565b905088815f0151146103e7576040517f08c379a00000000000000000000000000000000000000000000000000000000081526004016103de90611b88565b60405180910390fd5b3373ffffffffffffffffffffffffffffffffffffffff16816020015173ffffffffffffffffffffffffffffffffffffffff1614610459576040517f08c379a000000000000000000000000000000000000000000000000000000000815260040161045090611bf0565b60405180910390fd5b4681608001511461049f576040517f08c379a000000000000000000000000000000000000000000000000000000000815260040161049690611c58565b60405180910390fd5b7f000000000000000000000000000000000000000000000000000000000000000073ffffffffffffffffffffffffffffffffffffffff168160a0015173ffffffffffffffffffffffffffffffffffffffff1614610531576040517f08c379a000000000000000000000000000000000000000000000000000000000815260040161052890611cc0565b60405180910390fd5b80606001514210610577576040517f08c379a000000000000000000000000000000000000000000000000000000000815260040161056e90611d28565b60405180910390fd5b5f805f8b81526020019081526020015f205f3373ffffffffffffffffffffffffffffffffffffffff1673ffffffffffffffffffffffffffffffffffffffff1681526020019081526020015f208054905090508067ffffffffffffffff16826040015167ffffffffffffffff1611610623576040517f08c379a000000000000000000000000000000000000000000000000000000000815260040161061a90611d90565b60405180910390fd5b5f805f8c81526020019081526020015f205f3373ffffffffffffffffffffffffffffffffffffffff1673ffffffffffffffffffffffffffffffffffffffff1681526020019081526020015f2080549050036106e85760015f8b81526020019081526020015f2033908060018154018082558091505060019003905f5260205f20015f9091909190916101000a81548173ffffffffffffffffffffffffffffffffffffffff021916908373ffffffffffffffffffffffffffffffffffffffff1602179055505b5f808b81526020019081526020015f205f3373ffffffffffffffffffffffffffffffffffffffff1673ffffffffffffffffffffffffffffffffffffffff1681526020019081526020015f206040518060a001604052808b60ff1681526020018a81526020018981526020018367ffffffffffffffff1681526020015f1515815250908060018154018082558091505060019003905f5260205f2090600402015f909190919091505f820151815f015f6101000a81548160ff021916908360ff16021790555060208201518160010155604082015181600201556060820151816003015f6101000a81548167ffffffffffffffff021916908367ffffffffffffffff16021790555060808201518160030160086101000a81548160ff0219169083151502179055505050873373ffffffffffffffffffffffffffffffffffffffff168b7f54b3254e4cc01969e70376d20390cc2f6af90539d9adaa78a53ebcda17f781548c8b8b8b8b604051610861959493929190611dda565b60405180910390a450505050505050505050565b5f805f805f805f8981526020019081526020015f205f8873ffffffffffffffffffffffffffffffffffffffff1673ffffffffffffffffffffffffffffffffffffffff1681526020019081526020015f20905080805490508667ffffffffffffffff1610610917576040517f08c379a000000000000000000000000000000000000000000000000000000000815260040161090e90611e70565b60405180910390fd5b5f818767ffffffffffffffff168154811061093557610934611e8e565b5b905f5260205f2090600402019050805f015f9054906101000a900460ff16816001015482600201548360030160089054906101000a900460ff169550955095509550505093509350935093565b5f805f80925060605f8888905011156109dd578787808060200260200160405190810160405280939291908181526020018383602002808284375f81840152601f19601f820116905080830192505050505050509050610a73565b60015f8a81526020019081526020015f20805480602002602001604051908101604052809291908181526020018280548015610a6b57602002820191905f5260205f20905b815f9054906101000a900473ffffffffffffffffffffffffffffffffffffffff1673ffffffffffffffffffffffffffffffffffffffff1681526020019060010190808311610a22575b505050505090505b5f5b8151811015610bcd575f805f8c81526020019081526020015f205f848481518110610aa357610aa2611e8e565b5b602002602001015173ffffffffffffffffffffffffffffffffffffffff1673ffffffffffffffffffffffffffffffffffffffff1681526020019081526020015f2090505f5b8180549050811015610bb8575f828281548110610b0857610b07611e8e565b5b905f5260205f20906004020190508060030160089054906101000a900460ff1615610b335750610ba5565b5f801b8a14158015610b49575089816001015414155b15610b545750610ba5565b5f801b8914158015610b6a575088816002015414155b15610b755750610ba5565b805f015f9054906101000a900460ff1660ff1686610b939190611ee8565b95508780610ba090611f1b565b985050505b8080610bb090611f4a565b915050610ae8565b50508080610bc590611f4a565b915050610a75565b505f8467ffffffffffffffff1611610be5575f610bfc565b8367ffffffffffffffff1682610bfb9190611fbe565b5b925050509550959350505050565b606060015f8381526020019081526020015f20805480602002602001604051908101604052809291908181526020018280548015610c9a57602002820191905f5260205f20905b815f9054906101000a900473ffffffffffffffffffffffffffffffffffffffff1673ffffffffffffffffffffffffffffffffffffffff1681526020019060010190808311610c51575b50505050509050919050565b5f805f8481526020019081526020015f205f3373ffffffffffffffffffffffffffffffffffffffff1673ffffffffffffffffffffffffffffffffffffffff1681526020019081526020015f20905080805490508267ffffffffffffffff1610610d44576040517f08c379a0000000000000000000000000000000000000000000000000000000008152600401610d3b90611e70565b60405180910390fd5b6001818367ffffffffffffffff1681548110610d6357610d62611e8e565b5b905f5260205f20906004020160030160086101000a81548160ff0219169083151502179055508167ffffffffffffffff163373ffffffffffffffffffffffffffffffffffffffff16847f25156fd3288212246d8b008d5921fde376c71ed14ac2e072a506eb06fde6d09d60405160405180910390a4505050565b5f7f0000000000000000000000000000000000000000000000000000000000000000905090565b5f805f8881526020019081526020015f205f8773ffffffffffffffffffffffffffffffffffffffff1673ffffffffffffffffffffffffffffffffffffffff1681526020019081526020015f20905080805490508567ffffffffffffffff1610610ea2576040517f08c379a0000000000000000000000000000000000000000000000000000000008152600401610e9990611e70565b60405180910390fd5b60025f8381526020019081526020015f205f8881526020019081526020015f205f8773ffffffffffffffffffffffffffffffffffffffff1673ffffffffffffffffffffffffffffffffffffffff1681526020019081526020015f205f81819054906101000a900467ffffffffffffffff1680929190610f2090611f1b565b91906101000a81548167ffffffffffffffff021916908367ffffffffffffffff160217905550503373ffffffffffffffffffffffffffffffffffffffff168673ffffffffffffffffffffffffffffffffffffffff16887f91a4f57c12b47a488ba7365f0e60d24a1348fc94afddf6c60e0e22b018365408888888604051610fa993929190611fee565b60405180910390a450505050505050565b6002602052825f5260405f20602052815f5260405f20602052805f5260405f205f92509250509054906101000a900467ffffffffffffffff1681565b6001602052815f5260405f20818154811061100f575f80fd5b905f5260205f20015f915091509054906101000a900473ffffffffffffffffffffffffffffffffffffffff1681565b5f805f8481526020019081526020015f205f8373ffffffffffffffffffffffffffffffffffffffff1673ffffffffffffffffffffffffffffffffffffffff1681526020019081526020015f2080549050905092915050565b5f604051905090565b5f80fd5b5f80fd5b5f819050919050565b6110b9816110a7565b81146110c3575f80fd5b50565b5f813590506110d4816110b0565b92915050565b5f73ffffffffffffffffffffffffffffffffffffffff82169050919050565b5f611103826110da565b9050919050565b611113816110f9565b811461111d575f80fd5b50565b5f8135905061112e8161110a565b92915050565b5f805f6060848603121561114b5761114a61109f565b5b5f611158868287016110c6565b935050602061116986828701611120565b925050604061117a868287016110c6565b9150509250925092565b5f60ff82169050919050565b61119981611184565b82525050565b5f819050919050565b6111b18161119f565b82525050565b5f67ffffffffffffffff82169050919050565b6111d3816111b7565b82525050565b5f8115159050919050565b6111ed816111d9565b82525050565b5f60a0820190506112065f830188611190565b61121360208301876111a8565b61122060408301866111a8565b61122d60608301856111ca565b61123a60808301846111e4565b9695505050505050565b61124d816110f9565b82525050565b5f6020820190506112665f830184611244565b92915050565b61127581611184565b811461127f575f80fd5b50565b5f813590506112908161126c565b92915050565b61129f8161119f565b81146112a9575f80fd5b50565b5f813590506112ba81611296565b92915050565b5f80fd5b5f80fd5b5f80fd5b5f8083601f8401126112e1576112e06112c0565b5b8235905067ffffffffffffffff8111156112fe576112fd6112c4565b5b60208301915083600182028301111561131a576113196112c8565b5b9250929050565b5f80fd5b5f601f19601f8301169050919050565b7f4e487b71000000000000000000000000000000000000000000000000000000005f52604160045260245ffd5b61136b82611325565b810181811067ffffffffffffffff8211171561138a57611389611335565b5b80604052505050565b5f61139c611096565b90506113a88282611362565b919050565b5f67ffffffffffffffff8211156113c7576113c6611335565b5b6113d082611325565b9050602081019050919050565b828183375f83830152505050565b5f6113fd6113f8846113ad565b611393565b90508281526020810184848401111561141957611418611321565b5b6114248482856113dd565b509392505050565b5f82601f8301126114405761143f6112c0565b5b81356114508482602086016113eb565b91505092915050565b5f805f805f805f8060e0898b0312156114755761147461109f565b5b5f6114828b828c016110c6565b98505060206114938b828c01611282565b97505060406114a48b828c016112ac565b96505060606114b58b828c016112ac565b955050608089013567ffffffffffffffff8111156114d6576114d56110a3565b5b6114e28b828c016112cc565b945094505060a06114f58b828c016112ac565b92505060c089013567ffffffffffffffff811115611516576115156110a3565b5b6115228b828c0161142c565b9150509295985092959890939650565b61153b816111b7565b8114611545575f80fd5b50565b5f8135905061155681611532565b92915050565b5f805f606084860312156115735761157261109f565b5b5f611580868287016110c6565b935050602061159186828701611120565b92505060406115a286828701611548565b9150509250925092565b5f6080820190506115bf5f830187611190565b6115cc60208301866111a8565b6115d960408301856111a8565b6115e660608301846111e4565b95945050505050565b5f8083601f840112611604576116036112c0565b5b8235905067ffffffffffffffff811115611621576116206112c4565b5b60208301915083602082028301111561163d5761163c6112c8565b5b9250929050565b5f805f805f6080868803121561165d5761165c61109f565b5b5f61166a888289016110c6565b955050602086013567ffffffffffffffff81111561168b5761168a6110a3565b5b611697888289016115ef565b945094505060406116aa888289016112ac565b92505060606116bb888289016112ac565b9150509295509295909350565b5f6040820190506116db5f8301856111ca565b6116e86020830184611190565b9392505050565b5f602082840312156117045761170361109f565b5b5f611711848285016110c6565b91505092915050565b5f81519050919050565b5f82825260208201905092915050565b5f819050602082019050919050565b61174c816110f9565b82525050565b5f61175d8383611743565b60208301905092915050565b5f602082019050919050565b5f61177f8261171a565b6117898185611724565b935061179483611734565b805f5b838110156117c45781516117ab8882611752565b97506117b683611769565b925050600181019050611797565b5085935050505092915050565b5f6020820190508181035f8301526117e98184611775565b905092915050565b5f80604083850312156118075761180661109f565b5b5f611814858286016110c6565b925050602061182585828601611548565b9150509250929050565b5f805f805f8060a087890312156118495761184861109f565b5b5f61185689828a016110c6565b965050602061186789828a01611120565b955050604061187889828a01611548565b945050606087013567ffffffffffffffff811115611899576118986110a3565b5b6118a589828a016112cc565b935093505060806118b889828a016112ac565b9150509295509295509295565b5f805f606084860312156118dc576118db61109f565b5b5f6118e9868287016112ac565b93505060206118fa868287016110c6565b925050604061190b86828701611120565b9150509250925092565b5f6020820190506119285f8301846111ca565b92915050565b5f80604083850312156119445761194361109f565b5b5f611951858286016110c6565b9250506020611962858286016110c6565b9150509250929050565b5f80604083850312156119825761198161109f565b5b5f61198f858286016110c6565b92505060206119a085828601611120565b9150509250929050565b5f82825260208201905092915050565b7f53636f7265206d75737420626520302d313030000000000000000000000000005f82015250565b5f6119ee6013836119aa565b91506119f9826119ba565b602082019050919050565b5f6020820190508181035f830152611a1b816119e2565b9050919050565b5f80fd5b5f81519050611a34816110b0565b92915050565b5f81519050611a488161110a565b92915050565b5f81519050611a5c81611532565b92915050565b5f60e08284031215611a7757611a76611a22565b5b611a8160e0611393565b90505f611a9084828501611a26565b5f830152506020611aa384828501611a3a565b6020830152506040611ab784828501611a4e565b6040830152506060611acb84828501611a26565b6060830152506080611adf84828501611a26565b60808301525060a0611af384828501611a3a565b60a08301525060c0611b0784828501611a3a565b60c08301525092915050565b5f60e08284031215611b2857611b2761109f565b5b5f611b3584828501611a62565b91505092915050565b7f4167656e74204944206d69736d617463680000000000000000000000000000005f82015250565b5f611b726011836119aa565b9150611b7d82611b3e565b602082019050919050565b5f6020820190508181035f830152611b9f81611b66565b9050919050565b7f436c69656e742061646472657373206d69736d617463680000000000000000005f82015250565b5f611bda6017836119aa565b9150611be582611ba6565b602082019050919050565b5f6020820190508181035f830152611c0781611bce565b9050919050565b7f436861696e204944206d69736d617463680000000000000000000000000000005f82015250565b5f611c426011836119aa565b9150611c4d82611c0e565b602082019050919050565b5f6020820190508181035f830152611c6f81611c36565b9050919050565b7f5265676973747279206d69736d617463680000000000000000000000000000005f82015250565b5f611caa6011836119aa565b9150611cb582611c76565b602082019050919050565b5f6020820190508181035f830152611cd781611c9e565b9050919050565b7f417574686f72697a6174696f6e206578706972656400000000000000000000005f82015250565b5f611d126015836119aa565b9150611d1d82611cde565b602082019050919050565b5f6020820190508181035f830152611d3f81611d06565b9050919050565b7f496e646578206c696d69742065786365656465640000000000000000000000005f82015250565b5f611d7a6014836119aa565b9150611d8582611d46565b602082019050919050565b5f6020820190508181035f830152611da781611d6e565b9050919050565b5f611db983856119aa565b9350611dc68385846113dd565b611dcf83611325565b840190509392505050565b5f608082019050611ded5f830188611190565b611dfa60208301876111a8565b8181036040830152611e0d818587611dae565b9050611e1c60608301846111a8565b9695505050505050565b7f496e76616c696420696e646578000000000000000000000000000000000000005f82015250565b5f611e5a600d836119aa565b9150611e6582611e26565b602082019050919050565b5f6020820190508181035f830152611e8781611e4e565b9050919050565b7f4e487b71000000000000000000000000000000000000000000000000000000005f52603260045260245ffd5b7f4e487b71000000000000000000000000000000000000000000000000000000005f52601160045260245ffd5b5f611ef2826110a7565b9150611efd836110a7565b9250828201905080821115611f1557611f14611ebb565b5b92915050565b5f611f25826111b7565b915067ffffffffffffffff8203611f3f57611f3e611ebb565b5b600182019050919050565b5f611f54826110a7565b91507fffffffffffffffffffffffffffffffffffffffffffffffffffffffffffffffff8203611f8657611f85611ebb565b5b600182019050919050565b7f4e487b71000000000000000000000000000000000000000000000000000000005f52601260045260245ffd5b5f611fc8826110a7565b9150611fd3836110a7565b925082611fe357611fe2611f91565b5b828204905092915050565b5f6040820190506120015f8301866111ca565b8181036020830152612014818486611dae565b905094935050505056fea26469706673582212201a5656353a07cfe8f3194d56990722de0c896690b74e074eef1cb8cea09d1c0a64736f6c63430008140033","linkReferences":{}},"methodIdentifiers":{"appendResponse(uint256,address,uint64,string,bytes32)":"c2349ab2","clients(uint256,uint256)":"dfd122df","feedback(uint256,address,uint256)":"02839bed","getClients(uint256)":"42dd519c","getIdentityRegistry()":"bc4d861b","getLastIndex(uint256,address)":"f2d81759","getSummary(uint256,address[],bytes32,bytes32)":"31259cff","giveFeedback(uint256,uint8,bytes32,bytes32,string,bytes32,bytes)":"155e5bbd","identityRegistry()":"134e18f4","readFeedback(uint256,address,uint64)":"232b0810","responseCount(bytes32,uint256,address)":"c7a80867","revokeFeedback(uint256,uint64)":"4ab3ca99"},"id":21}