{"abi":[{"type":"function","name":"agentByAddress","inputs":[{"name":"","type":"address","internalType":"address"}],"outputs":[{"name":"","type":"uint256","internalType":"uint256"}],"stateMutability":"view"},{"type":"function","name":"agentOwners","inputs":[{"name":"","type":"uint256","internalType":"uint256"}],"outputs":[{"name":"","type":"address","internalType":"address"}],"stateMutability":"view"},{"type":"function","name":"getAgentId","inputs":[{"name":"agent","type":"address","internalType":"address"}],"outputs":[{"name":"","type":"uint256","internalType":"uint256"}],"stateMutability":"view"},{"type":"function","name":"getMetadata","inputs":[{"name":"agentId","type":"uint256","internalType":"uint256"},{"name":"key","type":"string","internalType":"string"}],"outputs":[{"name":"","type":"bytes","internalType":"bytes"}],"stateMutability":"view"},{"type":"function","name":"isRegistered","inputs":[{"name":"agent","type":"address","internalType":"address"}],"outputs":[{"name":"","type":"bool","internalType":"bool"}],"stateMutability":"view"},{"type":"function","name":"metadata","inputs":[{"name":"","type":"uint256","internalType":"uint256"},{"name":"","type":"string","internalType":"string"}],"outputs":[{"name":"","type":"bytes","internalType":"bytes"}],"stateMutability":"view"},{"type":"function","name":"ownerOf","inputs":[{"name":"agentId","type":"uint256","internalType":"uint256"}],"outputs":[{"name":"","type":"address","internalType":"address"}],"stateMutability":"view"},{"type":"function","name":"register","inputs":[],"outputs":[{"name":"agentId","type":"uint256","internalType":"uint256"}],"stateMutability":"nonpayable"},{"type":"function","name":"register","inputs":[{"name":"uri","type":"string","internalType":"string"},{"name":"metadataEntries","type":"tuple[]","internalType":"struct IdentityRegistry.MetadataEntry[]","components":[{"name":"key","type":"string","internalType":"string"},{"name":"value","type":"bytes","internalType":"bytes"}]}],"outputs":[{"name":"agentId","type":"uint256","internalType":"uint256"}],"stateMutability":"nonpayable"},{"type":"function","name":"setMetadata","inputs":[{"name":"agentId","type":"uint256","internalType":"uint256"},{"name":"key","type":"string","internalType":"string"},{"name":"value","type":"bytes","internalType":"bytes"}],"outputs":[],"stateMutability":"nonpayable"},{"type":"function","name":"setTokenURI","inputs":[{"name":"agentId","type":"uint256","internalType":"uint256"},{"name":"uri","type":"string","internalType":"string"}],"outputs":[],"stateMutability":"nonpayable"},{"type":"function","name":"tokenURI","inputs":[{"name":"agentId","type":"uint256","internalType":"uint256"}],"outputs":[{"name":"","type":"string","internalType":"string"}],"stateMutability":"view"},{"type":"function","name":"tokenURIs","inputs":[{"name":"","type":"uint256","internalType":"uint256"}],"outputs":[{"name":"","type":"string","internalType":"string"}],"stateMutability":"view"},{"type":"function","name":"totalSupply","inputs":[],"outputs":[{"name":"","type":"uint256","internalType":"uint256"}],"stateMutability":"view"},{"type":"event","name":"MetadataSet","inputs":[{"name":"agentId","type":"uint256","indexed":true,"internalType":"uint256"},{"name":"indexedKey","type":"string","indexed":true,"internalType":"string"},{"name":"key","type":"string","indexed":false,"internalType":"string"},{"name":"value","type":"bytes","indexed":false,"internalType":"bytes"}],"anonymous":false},{"type":"event","name":"Registered","inputs":[{"name":"agentId","type":"uint256","indexed":true,"internalType":"uint256"},{"name":"tokenURI","type":"string","indexed":false,"internalType":"string"},{"name":"owner","type":"address","indexed":true,"internalType":"address"}],"anonymous":false},{"type":"event","name":"Transfer","inputs":[{"name":"from","type":"address","indexed":true,"internalType":"address"},{"name":"to","type":"address","indexed":true,"internalType":"address"},{"name":"tokenId","type":"uint256","indexed":true,"internalType":"uint256"}],"anonymous":false}],"bytecode":{"object":"0x608060405260015f55348015610013575f80fd5b50611ca3806100215f395ff3fe608060405234801561000f575f80fd5b50600436106100e8575f3560e01c80637e86857f1161008a578063c3c5a54711610064578063c3c5a54714610280578063c87b56dd146102b0578063cb4799f2146102e0578063df670be114610310576100e8565b80637e86857f146101f05780638ea4228614610220578063b982716c14610250576100e8565b80631aa3a008116100c65780631aa3a00814610156578063466648da146101745780636352211e146101905780636c8b703f146101c0576100e8565b8063042324b6146100ec578063162094c41461011c57806318160ddd14610138575b5f80fd5b61010660048036038101906101019190610e77565b610340565b6040516101139190610eba565b60405180910390f35b61013660048036038101906101319190610f5e565b610386565b005b61014061044a565b60405161014d9190610eba565b60405180910390f35b61015e61045e565b60405161016b9190610eba565b60405180910390f35b61018e60048036038101906101899190611010565b6105b2565b005b6101aa60048036038101906101a591906110a1565b6106ec565b6040516101b791906110db565b60405180910390f35b6101da60048036038101906101d591906110a1565b610798565b6040516101e7919061117e565b60405180910390f35b61020a600480360381019061020591906110a1565b610833565b60405161021791906110db565b60405180910390f35b61023a600480360381019061023591906111f3565b610863565b6040516102479190610eba565b60405180910390f35b61026a60048036038101906102659190610e77565b610b8e565b6040516102779190610eba565b60405180910390f35b61029a60048036038101906102959190610e77565b610ba3565b6040516102a7919061128b565b60405180910390f35b6102ca60048036038101906102c591906110a1565b610bec565b6040516102d7919061117e565b60405180910390f35b6102fa60048036038101906102f59190610f5e565b610c8d565b60405161030791906112f6565b60405180910390f35b61032a6004803603810190610325919061143e565b610d4e565b60405161033791906112f6565b60405180910390f35b5f60045f8373ffffffffffffffffffffffffffffffffffffffff1673ffffffffffffffffffffffffffffffffffffffff1681526020019081526020015f20549050919050565b3373ffffffffffffffffffffffffffffffffffffffff1660015f8581526020019081526020015f205f9054906101000a900473ffffffffffffffffffffffffffffffffffffffff1673ffffffffffffffffffffffffffffffffffffffff1614610424576040517f08c379a000000000000000000000000000000000000000000000000000000000815260040161041b906114e2565b60405180910390fd5b818160025f8681526020019081526020015f209182610444929190611704565b50505050565b5f60015f5461045991906117fe565b905090565b5f805f81548092919061047090611831565b9190505590503360015f8381526020019081526020015f205f6101000a81548173ffffffffffffffffffffffffffffffffffffffff021916908373ffffffffffffffffffffffffffffffffffffffff1602179055508060045f3373ffffffffffffffffffffffffffffffffffffffff1673ffffffffffffffffffffffffffffffffffffffff1681526020019081526020015f20819055503373ffffffffffffffffffffffffffffffffffffffff16817fca52e62c367d81bb2e328eb795f7c7ba24afb478408a26c0e201d155c449bc4a60405161054c9061189b565b60405180910390a3803373ffffffffffffffffffffffffffffffffffffffff165f73ffffffffffffffffffffffffffffffffffffffff167fddf252ad1be2c89b69c2b068fc378daa952ba7f163c4a11628f55a4df523b3ef60405160405180910390a490565b3373ffffffffffffffffffffffffffffffffffffffff1660015f8781526020019081526020015f205f9054906101000a900473ffffffffffffffffffffffffffffffffffffffff1673ffffffffffffffffffffffffffffffffffffffff1614610650576040517f08c379a0000000000000000000000000000000000000000000000000000000008152600401610647906114e2565b60405180910390fd5b818160035f8881526020019081526020015f2086866040516106739291906118e7565b9081526020016040518091039020918261068e929190611961565b50838360405161069f9291906118e7565b6040518091039020857f2c149ed548c6d2993cd73efe187df6eccabe4538091b33adbd25fafdb8a1468b868686866040516106dd9493929190611a86565b60405180910390a35050505050565b5f8060015f8481526020019081526020015f205f9054906101000a900473ffffffffffffffffffffffffffffffffffffffff1690505f73ffffffffffffffffffffffffffffffffffffffff168173ffffffffffffffffffffffffffffffffffffffff160361078f576040517f08c379a000000000000000000000000000000000000000000000000000000000815260040161078690611b09565b60405180910390fd5b80915050919050565b6002602052805f5260405f205f9150905080546107b490611537565b80601f01602080910402602001604051908101604052809291908181526020018280546107e090611537565b801561082b5780601f106108025761010080835404028352916020019161082b565b820191905f5260205f20905b81548152906001019060200180831161080e57829003601f168201915b505050505081565b6001602052805f5260405f205f915054906101000a900473ffffffffffffffffffffffffffffffffffffffff1681565b5f805f81548092919061087590611831565b9190505590503360015f8381526020019081526020015f205f6101000a81548173ffffffffffffffffffffffffffffffffffffffff021916908373ffffffffffffffffffffffffffffffffffffffff160217905550848460025f8481526020019081526020015f2091826108ea929190611704565b508060045f3373ffffffffffffffffffffffffffffffffffffffff1673ffffffffffffffffffffffffffffffffffffffff1681526020019081526020015f20819055505f5b83839050811015610ad95783838281811061094d5761094c611b27565b5b905060200281019061095f9190611b60565b806020019061096e9190611b87565b60035f8581526020019081526020015f2086868581811061099257610991611b27565b5b90506020028101906109a49190611b60565b805f01906109b29190611be9565b6040516109c09291906118e7565b908152602001604051809103902091826109db929190611961565b508383828181106109ef576109ee611b27565b5b9050602002810190610a019190611b60565b805f0190610a0f9190611be9565b604051610a1d9291906118e7565b6040518091039020827f2c149ed548c6d2993cd73efe187df6eccabe4538091b33adbd25fafdb8a1468b868685818110610a5a57610a59611b27565b5b9050602002810190610a6c9190611b60565b805f0190610a7a9190611be9565b888887818110610a8d57610a8c611b27565b5b9050602002810190610a9f9190611b60565b8060200190610aae9190611b87565b604051610abe9493929190611a86565b60405180910390a38080610ad190611831565b91505061092f565b503373ffffffffffffffffffffffffffffffffffffffff16817fca52e62c367d81bb2e328eb795f7c7ba24afb478408a26c0e201d155c449bc4a8787604051610b23929190611c4b565b60405180910390a3803373ffffffffffffffffffffffffffffffffffffffff165f73ffffffffffffffffffffffffffffffffffffffff167fddf252ad1be2c89b69c2b068fc378daa952ba7f163c4a11628f55a4df523b3ef60405160405180910390a4949350505050565b6004602052805f5260405f205f915090505481565b5f8060045f8473ffffffffffffffffffffffffffffffffffffffff1673ffffffffffffffffffffffffffffffffffffffff1681526020019081526020015f205414159050919050565b606060025f8381526020019081526020015f208054610c0a90611537565b80601f0160208091040260200160405190810160405280929190818152602001828054610c3690611537565b8015610c815780601f10610c5857610100808354040283529160200191610c81565b820191905f5260205f20905b815481529060010190602001808311610c6457829003601f168201915b50505050509050919050565b606060035f8581526020019081526020015f208383604051610cb09291906118e7565b90815260200160405180910390208054610cc990611537565b80601f0160208091040260200160405190810160405280929190818152602001828054610cf590611537565b8015610d405780601f10610d1757610100808354040283529160200191610d40565b820191905f5260205f20905b815481529060010190602001808311610d2357829003601f168201915b505050505090509392505050565b6003602052815f5260405f20818051602081018201805184825260208301602085012081835280955050505050505f91509150508054610d8d90611537565b80601f0160208091040260200160405190810160405280929190818152602001828054610db990611537565b8015610e045780601f10610ddb57610100808354040283529160200191610e04565b820191905f5260205f20905b815481529060010190602001808311610de757829003601f168201915b505050505081565b5f604051905090565b5f80fd5b5f80fd5b5f73ffffffffffffffffffffffffffffffffffffffff82169050919050565b5f610e4682610e1d565b9050919050565b610e5681610e3c565b8114610e60575f80fd5b50565b5f81359050610e7181610e4d565b92915050565b5f60208284031215610e8c57610e8b610e15565b5b5f610e9984828501610e63565b91505092915050565b5f819050919050565b610eb481610ea2565b82525050565b5f602082019050610ecd5f830184610eab565b92915050565b610edc81610ea2565b8114610ee6575f80fd5b50565b5f81359050610ef781610ed3565b92915050565b5f80fd5b5f80fd5b5f80fd5b5f8083601f840112610f1e57610f1d610efd565b5b8235905067ffffffffffffffff811115610f3b57610f3a610f01565b5b602083019150836001820283011115610f5757610f56610f05565b5b9250929050565b5f805f60408486031215610f7557610f74610e15565b5b5f610f8286828701610ee9565b935050602084013567ffffffffffffffff811115610fa357610fa2610e19565b5b610faf86828701610f09565b92509250509250925092565b5f8083601f840112610fd057610fcf610efd565b5b8235905067ffffffffffffffff811115610fed57610fec610f01565b5b60208301915083600182028301111561100957611008610f05565b5b9250929050565b5f805f805f6060868803121561102957611028610e15565b5b5f61103688828901610ee9565b955050602086013567ffffffffffffffff81111561105757611056610e19565b5b61106388828901610f09565b9450945050604086013567ffffffffffffffff81111561108657611085610e19565b5b61109288828901610fbb565b92509250509295509295909350565b5f602082840312156110b6576110b5610e15565b5b5f6110c384828501610ee9565b91505092915050565b6110d581610e3c565b82525050565b5f6020820190506110ee5f8301846110cc565b92915050565b5f81519050919050565b5f82825260208201905092915050565b5f5b8381101561112b578082015181840152602081019050611110565b5f8484015250505050565b5f601f19601f8301169050919050565b5f611150826110f4565b61115a81856110fe565b935061116a81856020860161110e565b61117381611136565b840191505092915050565b5f6020820190508181035f8301526111968184611146565b905092915050565b5f8083601f8401126111b3576111b2610efd565b5b8235905067ffffffffffffffff8111156111d0576111cf610f01565b5b6020830191508360208202830111156111ec576111eb610f05565b5b9250929050565b5f805f806040858703121561120b5761120a610e15565b5b5f85013567ffffffffffffffff81111561122857611227610e19565b5b61123487828801610f09565b9450945050602085013567ffffffffffffffff81111561125757611256610e19565b5b6112638782880161119e565b925092505092959194509250565b5f8115159050919050565b61128581611271565b82525050565b5f60208201905061129e5f83018461127c565b92915050565b5f81519050919050565b5f82825260208201905092915050565b5f6112c8826112a4565b6112d281856112ae565b93506112e281856020860161110e565b6112eb81611136565b840191505092915050565b5f6020820190508181035f83015261130e81846112be565b905092915050565b5f80fd5b7f4e487b71000000000000000000000000000000000000000000000000000000005f52604160045260245ffd5b61135082611136565b810181811067ffffffffffffffff8211171561136f5761136e61131a565b5b80604052505050565b5f611381610e0c565b905061138d8282611347565b919050565b5f67ffffffffffffffff8211156113ac576113ab61131a565b5b6113b582611136565b9050602081019050919050565b828183375f83830152505050565b5f6113e26113dd84611392565b611378565b9050828152602081018484840111156113fe576113fd611316565b5b6114098482856113c2565b509392505050565b5f82601f83011261142557611424610efd565b5b81356114358482602086016113d0565b91505092915050565b5f806040838503121561145457611453610e15565b5b5f61146185828601610ee9565b925050602083013567ffffffffffffffff81111561148257611481610e19565b5b61148e85828601611411565b9150509250929050565b7f4e6f74206f776e657200000000000000000000000000000000000000000000005f82015250565b5f6114cc6009836110fe565b91506114d782611498565b602082019050919050565b5f6020820190508181035f8301526114f9816114c0565b9050919050565b5f82905092915050565b7f4e487b71000000000000000000000000000000000000000000000000000000005f52602260045260245ffd5b5f600282049050600182168061154e57607f821691505b6020821081036115615761156061150a565b5b50919050565b5f819050815f5260205f209050919050565b5f6020601f8301049050919050565b5f82821b905092915050565b5f600883026115c37fffffffffffffffffffffffffffffffffffffffffffffffffffffffffffffffff82611588565b6115cd8683611588565b95508019841693508086168417925050509392505050565b5f819050919050565b5f6116086116036115fe84610ea2565b6115e5565b610ea2565b9050919050565b5f819050919050565b611621836115ee565b61163561162d8261160f565b848454611594565b825550505050565b5f90565b61164961163d565b611654818484611618565b505050565b5b818110156116775761166c5f82611641565b60018101905061165a565b5050565b601f8211156116bc5761168d81611567565b61169684611579565b810160208510156116a5578190505b6116b96116b185611579565b830182611659565b50505b505050565b5f82821c905092915050565b5f6116dc5f19846008026116c1565b1980831691505092915050565b5f6116f483836116cd565b9150826002028217905092915050565b61170e8383611500565b67ffffffffffffffff8111156117275761172661131a565b5b6117318254611537565b61173c82828561167b565b5f601f831160018114611769575f8415611757578287013590505b61176185826116e9565b8655506117c8565b601f19841661177786611567565b5f5b8281101561179e57848901358255600182019150602085019450602081019050611779565b868310156117bb57848901356117b7601f8916826116cd565b8355505b6001600288020188555050505b50505050505050565b7f4e487b71000000000000000000000000000000000000000000000000000000005f52601160045260245ffd5b5f61180882610ea2565b915061181383610ea2565b925082820390508181111561182b5761182a6117d1565b5b92915050565b5f61183b82610ea2565b91507fffffffffffffffffffffffffffffffffffffffffffffffffffffffffffffffff820361186d5761186c6117d1565b5b600182019050919050565b50565b5f6118865f836110fe565b915061189182611878565b5f82019050919050565b5f6020820190508181035f8301526118b28161187b565b9050919050565b5f81905092915050565b5f6118ce83856118b9565b93506118db8385846113c2565b82840190509392505050565b5f6118f38284866118c3565b91508190509392505050565b5f82905092915050565b5f819050815f5260205f209050919050565b601f82111561195c5761192d81611909565b61193684611579565b81016020851015611945578190505b61195961195185611579565b830182611659565b50505b505050565b61196b83836118ff565b67ffffffffffffffff8111156119845761198361131a565b5b61198e8254611537565b61199982828561191b565b5f601f8311600181146119c6575f84156119b4578287013590505b6119be85826116e9565b865550611a25565b601f1984166119d486611909565b5f5b828110156119fb578489013582556001820191506020850194506020810190506119d6565b86831015611a185784890135611a14601f8916826116cd565b8355505b6001600288020188555050505b50505050505050565b5f611a3983856110fe565b9350611a468385846113c2565b611a4f83611136565b840190509392505050565b5f611a6583856112ae565b9350611a728385846113c2565b611a7b83611136565b840190509392505050565b5f6040820190508181035f830152611a9f818688611a2e565b90508181036020830152611ab4818486611a5a565b905095945050505050565b7f4167656e7420646f6573206e6f742065786973740000000000000000000000005f82015250565b5f611af36014836110fe565b9150611afe82611abf565b602082019050919050565b5f6020820190508181035f830152611b2081611ae7565b9050919050565b7f4e487b71000000000000000000000000000000000000000000000000000000005f52603260045260245ffd5b5f80fd5b5f80fd5b5f80fd5b5f82356001604003833603038112611b7b57611b7a611b54565b5b80830191505092915050565b5f8083356001602003843603038112611ba357611ba2611b54565b5b80840192508235915067ffffffffffffffff821115611bc557611bc4611b58565b5b602083019250600182023603831315611be157611be0611b5c565b5b509250929050565b5f8083356001602003843603038112611c0557611c04611b54565b5b80840192508235915067ffffffffffffffff821115611c2757611c26611b58565b5b602083019250600182023603831315611c4357611c42611b5c565b5b509250929050565b5f6020820190508181035f830152611c64818486611a2e565b9050939250505056fea2646970667358221220bf86b4ba55cf0980595dc26923b24d1ea259c954382078bbaa6fddf8b499cd5964736f6c63430008140033","linkReferences":{}},"methodIdentifiers":{"agentByAddress(address)":"b982716c","agentOwners(uint256)":"7e86857f","getAgentId(address)":"042324b6","getMetadata(uint256,string)":"cb4799f2","isRegistered(address)":"c3c5a547","metadata(uint256,string)":"df670be1","ownerOf(uint256)":"6352211e","register()":"1aa3a008","register(string,(string,bytes)[])":"8ea42286","setMetadata(uint256,string,bytes)":"466648da","setTokenURI(uint256,string)":"162094c4","tokenURI(uint256)":"c87b56dd","tokenURIs(uint256)":"6c8b703f","totalSupply()":"18160ddd"},"id":19}