{"abi":[{"type":"constructor","inputs":[{"name":"_oracle","type":"address","internalType":"address"}],"stateMutability":"nonpayable"},{"type":"function","name":"bets","inputs":[{"name":"","type":"uint256","internalType":"uint256"}],"outputs":[{"name":"gameSessionId","type":"bytes32","internalType":"bytes32"},{"name":"predictedOutcome","type":"bool","internalType":"bool"},{"name":"amount","type":"uint256","internalType":"uint256"},{"name":"bettor","type":"address","internalType":"address"}],"stateMutability":"view"},{"type":"function","name":"claim","inputs":[{"name":"betId","type":"uint256","internalType":"uint256"}],"outputs":[],"stateMutability":"nonpayable"},{"type":"function","name":"nextBetId","inputs":[],"outputs":[{"name":"","type":"uint256","internalType":"uint256"}],"stateMutability":"view"},{"type":"function","name":"oracle","inputs":[],"outputs":[{"name":"","type":"address","internalType":"contract IPredictionOracle"}],"stateMutability":"view"},{"type":"function","name":"placeBet","inputs":[{"name":"gameSessionId","type":"bytes32","internalType":"bytes32"},{"name":"predictedOutcome","type":"bool","internalType":"bool"}],"outputs":[],"stateMutability":"payable"}],"bytecode":{"object":"0x608060405234801561000f575f80fd5b50604051610a06380380610a06833981810160405281019061003191906100d4565b805f806101000a81548173ffffffffffffffffffffffffffffffffffffffff021916908373ffffffffffffffffffffffffffffffffffffffff160217905550506100ff565b5f80fd5b5f73ffffffffffffffffffffffffffffffffffffffff82169050919050565b5f6100a38261007a565b9050919050565b6100b381610099565b81146100bd575f80fd5b50565b5f815190506100ce816100aa565b92915050565b5f602082840312156100e9576100e8610076565b5b5f6100f6848285016100c0565b91505092915050565b6108fa8061010c5f395ff3fe608060405260043610610049575f3560e01c806322af00fa1461004d578063379607f51461008c5780637dc0d1d0146100b45780639aca2792146100de578063b162c6e614610108575b5f80fd5b348015610058575f80fd5b50610073600480360381019061006e91906104b7565b610124565b6040516100839493929190610562565b60405180910390f35b348015610097575f80fd5b506100b260048036038101906100ad91906104b7565b61017b565b005b3480156100bf575f80fd5b506100c861037a565b6040516100d59190610600565b60405180910390f35b3480156100e9575f80fd5b506100f261039d565b6040516100ff9190610619565b60405180910390f35b610122600480360381019061011d9190610686565b6103a3565b005b6001602052805f5260405f205f91509050805f015490806001015f9054906101000a900460ff1690806002015490806003015f9054906101000a900473ffffffffffffffffffffffffffffffffffffffff16905084565b5f60015f8381526020019081526020015f2090503373ffffffffffffffffffffffffffffffffffffffff16816003015f9054906101000a900473ffffffffffffffffffffffffffffffffffffffff1673ffffffffffffffffffffffffffffffffffffffff1614610220576040517f08c379a00000000000000000000000000000000000000000000000000000000081526004016102179061071e565b60405180910390fd5b5f805f8054906101000a900473ffffffffffffffffffffffffffffffffffffffff1673ffffffffffffffffffffffffffffffffffffffff16635d1a3b82845f01546040518263ffffffff1660e01b815260040161027d919061073c565b6040805180830381865afa158015610297573d5f803e3d5ffd5b505050506040513d601f19601f820116820180604052508101906102bb9190610769565b91509150806102ff576040517f08c379a00000000000000000000000000000000000000000000000000000000081526004016102f6906107f1565b60405180910390fd5b826001015f9054906101000a900460ff16151582151503610374575f6002846002015461032c919061083c565b90503373ffffffffffffffffffffffffffffffffffffffff166108fc8290811502906040515f60405180830381858888f19350505050158015610371573d5f803e3d5ffd5b50505b50505050565b5f8054906101000a900473ffffffffffffffffffffffffffffffffffffffff1681565b60025481565b604051806080016040528083815260200182151581526020013481526020013373ffffffffffffffffffffffffffffffffffffffff1681525060015f60025f8154809291906103f19061087d565b9190505581526020019081526020015f205f820151815f01556020820151816001015f6101000a81548160ff021916908315150217905550604082015181600201556060820151816003015f6101000a81548173ffffffffffffffffffffffffffffffffffffffff021916908373ffffffffffffffffffffffffffffffffffffffff1602179055509050505050565b5f80fd5b5f819050919050565b61049681610484565b81146104a0575f80fd5b50565b5f813590506104b18161048d565b92915050565b5f602082840312156104cc576104cb610480565b5b5f6104d9848285016104a3565b91505092915050565b5f819050919050565b6104f4816104e2565b82525050565b5f8115159050919050565b61050e816104fa565b82525050565b61051d81610484565b82525050565b5f73ffffffffffffffffffffffffffffffffffffffff82169050919050565b5f61054c82610523565b9050919050565b61055c81610542565b82525050565b5f6080820190506105755f8301876104eb565b6105826020830186610505565b61058f6040830185610514565b61059c6060830184610553565b95945050505050565b5f819050919050565b5f6105c86105c36105be84610523565b6105a5565b610523565b9050919050565b5f6105d9826105ae565b9050919050565b5f6105ea826105cf565b9050919050565b6105fa816105e0565b82525050565b5f6020820190506106135f8301846105f1565b92915050565b5f60208201905061062c5f830184610514565b92915050565b61063b816104e2565b8114610645575f80fd5b50565b5f8135905061065681610632565b92915050565b610665816104fa565b811461066f575f80fd5b50565b5f813590506106808161065c565b92915050565b5f806040838503121561069c5761069b610480565b5b5f6106a985828601610648565b92505060206106ba85828601610672565b9150509250929050565b5f82825260208201905092915050565b7f4e6f7420796f75722062657400000000000000000000000000000000000000005f82015250565b5f610708600c836106c4565b9150610713826106d4565b602082019050919050565b5f6020820190508181035f830152610735816106fc565b9050919050565b5f60208201905061074f5f8301846104eb565b92915050565b5f815190506107638161065c565b92915050565b5f806040838503121561077f5761077e610480565b5b5f61078c85828601610755565b925050602061079d85828601610755565b9150509250929050565b7f47616d65206e6f742066696e616c697a656400000000000000000000000000005f82015250565b5f6107db6012836106c4565b91506107e6826107a7565b602082019050919050565b5f6020820190508181035f830152610808816107cf565b9050919050565b7f4e487b71000000000000000000000000000000000000000000000000000000005f52601160045260245ffd5b5f61084682610484565b915061085183610484565b925082820261085f81610484565b915082820484148315176108765761087561080f565b5b5092915050565b5f61088782610484565b91507fffffffffffffffffffffffffffffffffffffffffffffffffffffffffffffffff82036108b9576108b861080f565b5b60018201905091905056fea2646970667358221220cddb869e409d28794b801ce795b5a1817e180abcdf02a13b4e9a51aa32eee63d64736f6c63430008140033","linkReferences":{}},"methodIdentifiers":{"bets(uint256)":"22af00fa","claim(uint256)":"379607f5","nextBetId()":"9aca2792","oracle()":"7dc0d1d0","placeBet(bytes32,bool)":"b162c6e6"},"id":21}