{"abi":[{"type":"constructor","inputs":[{"name":"_gameServer","type":"address","internalType":"address"}],"stateMutability":"nonpayable"},{"type":"function","name":"commitGame","inputs":[{"name":"sessionId","type":"bytes32","internalType":"bytes32"},{"name":"question","type":"string","internalType":"string"},{"name":"commitment","type":"bytes32","internalType":"bytes32"}],"outputs":[],"stateMutability":"nonpayable"},{"type":"function","name":"commitments","inputs":[{"name":"","type":"bytes32","internalType":"bytes32"}],"outputs":[{"name":"","type":"bool","internalType":"bool"}],"stateMutability":"view"},{"type":"function","name":"gameCount","inputs":[],"outputs":[{"name":"","type":"uint256","internalType":"uint256"}],"stateMutability":"view"},{"type":"function","name":"gameServer","inputs":[],"outputs":[{"name":"","type":"address","internalType":"address"}],"stateMutability":"view"},{"type":"function","name":"games","inputs":[{"name":"","type":"bytes32","internalType":"bytes32"}],"outputs":[{"name":"sessionId","type":"bytes32","internalType":"bytes32"},{"name":"question","type":"string","internalType":"string"},{"name":"outcome","type":"bool","internalType":"bool"},{"name":"commitment","type":"bytes32","internalType":"bytes32"},{"name":"salt","type":"bytes32","internalType":"bytes32"},{"name":"startTime","type":"uint256","internalType":"uint256"},{"name":"endTime","type":"uint256","internalType":"uint256"},{"name":"teeQuote","type":"bytes","internalType":"bytes"},{"name":"totalPayout","type":"uint256","internalType":"uint256"},{"name":"finalized","type":"bool","internalType":"bool"}],"stateMutability":"view"},{"type":"function","name":"getGame","inputs":[{"name":"sessionId","type":"bytes32","internalType":"bytes32"}],"outputs":[{"name":"","type":"tuple","internalType":"struct PredictionOracle.GameOutcome","components":[{"name":"sessionId","type":"bytes32","internalType":"bytes32"},{"name":"question","type":"string","internalType":"string"},{"name":"outcome","type":"bool","internalType":"bool"},{"name":"commitment","type":"bytes32","internalType":"bytes32"},{"name":"salt","type":"bytes32","internalType":"bytes32"},{"name":"startTime","type":"uint256","internalType":"uint256"},{"name":"endTime","type":"uint256","internalType":"uint256"},{"name":"teeQuote","type":"bytes","internalType":"bytes"},{"name":"winners","type":"address[]","internalType":"address[]"},{"name":"totalPayout","type":"uint256","internalType":"uint256"},{"name":"finalized","type":"bool","internalType":"bool"}]}],"stateMutability":"view"},{"type":"function","name":"getOutcome","inputs":[{"name":"sessionId","type":"bytes32","internalType":"bytes32"}],"outputs":[{"name":"outcome","type":"bool","internalType":"bool"},{"name":"finalized","type":"bool","internalType":"bool"}],"stateMutability":"view"},{"type":"function","name":"isWinner","inputs":[{"name":"sessionId","type":"bytes32","internalType":"bytes32"},{"name":"player","type":"address","internalType":"address"}],"outputs":[{"name":"","type":"bool","internalType":"bool"}],"stateMutability":"view"},{"type":"function","name":"revealGame","inputs":[{"name":"sessionId","type":"bytes32","internalType":"bytes32"},{"name":"outcome","type":"bool","internalType":"bool"},{"name":"salt","type":"bytes32","internalType":"bytes32"},{"name":"teeQuote","type":"bytes","internalType":"bytes"},{"name":"winners","type":"address[]","internalType":"address[]"},{"name":"totalPayout","type":"uint256","internalType":"uint256"}],"outputs":[],"stateMutability":"nonpayable"},{"type":"function","name":"verifyCommitment","inputs":[{"name":"commitment","type":"bytes32","internalType":"bytes32"}],"outputs":[{"name":"","type":"bool","internalType":"bool"}],"stateMutability":"view"},{"type":"event","name":"GameCommitted","inputs":[{"name":"sessionId","type":"bytes32","indexed":true,"internalType":"bytes32"},{"name":"question","type":"string","indexed":false,"internalType":"string"},{"name":"commitment","type":"bytes32","indexed":false,"internalType":"bytes32"},{"name":"startTime","type":"uint256","indexed":false,"internalType":"uint256"}],"anonymous":false},{"type":"event","name":"GameRevealed","inputs":[{"name":"sessionId","type":"bytes32","indexed":true,"internalType":"bytes32"},{"name":"outcome","type":"bool","indexed":false,"internalType":"bool"},{"name":"endTime","type":"uint256","indexed":false,"internalType":"uint256"},{"name":"teeQuote","type":"bytes","indexed":false,"internalType":"bytes"},{"name":"winnersCount","type":"uint256","indexed":false,"internalType":"uint256"}],"anonymous":false}],"bytecode":{"object":"0x608060405234801562000010575f80fd5b50604051620021d7380380620021d78339818101604052810190620000369190620000e2565b8060025f6101000a81548173ffffffffffffffffffffffffffffffffffffffff021916908373ffffffffffffffffffffffffffffffffffffffff1602179055505062000112565b5f80fd5b5f73ffffffffffffffffffffffffffffffffffffffff82169050919050565b5f620000ac8262000081565b9050919050565b620000be81620000a0565b8114620000c9575f80fd5b50565b5f81519050620000dc81620000b3565b92915050565b5f60208284031215620000fa57620000f96200007d565b5b5f6200010984828501620000cc565b91505092915050565b6120b780620001205f395ff3fe608060405234801561000f575f80fd5b506004361061009c575f3560e01c8063839df94511610064578063839df945146101595780639cc19f5b14610189578063b102bd59146101b9578063f579f882146101d5578063fc6326ce1461020e5761009c565b806307cb4b2e146100a057806329cd564c146100bc5780634d1975b4146100da5780635d1a3b82146100f857806373931bbf14610129575b5f80fd5b6100ba60048036038101906100b59190610f9d565b61023e565b005b6100c46105c5565b6040516100d1919061104d565b60405180910390f35b6100e26105ea565b6040516100ef919061107e565b60405180910390f35b610112600480360381019061010d9190611097565b6105f0565b6040516101209291906110dc565b60405180910390f35b610143600480360381019061013e9190611097565b610631565b60405161015091906113bd565b60405180910390f35b610173600480360381019061016e9190611097565b610876565b60405161018091906113dd565b60405180910390f35b6101a3600480360381019061019e9190611420565b610893565b6040516101b091906113dd565b60405180910390f35b6101d360048036038101906101ce919061162f565b610952565b005b6101ef60048036038101906101ea9190611097565b610bc1565b6040516102059a99989796959493929190611794565b60405180910390f35b61022860048036038101906102239190611097565b610d34565b60405161023591906113dd565b60405180910390f35b60025f9054906101000a900473ffffffffffffffffffffffffffffffffffffffff1673ffffffffffffffffffffffffffffffffffffffff163373ffffffffffffffffffffffffffffffffffffffff16146102cd576040517f08c379a00000000000000000000000000000000000000000000000000000000081526004016102c490611886565b60405180910390fd5b60015f8281526020019081526020015f205f9054906101000a900460ff161561032b576040517f08c379a0000000000000000000000000000000000000000000000000000000008152600401610322906118ee565b60405180910390fd5b5f805f8681526020019081526020015f206005015414610380576040517f08c379a000000000000000000000000000000000000000000000000000000000815260040161037790611956565b60405180910390fd5b60405180610160016040528085815260200184848080601f0160208091040260200160405190810160405280939291908181526020018383808284375f81840152601f19601f8201169050808301925050505050505081526020015f151581526020018281526020015f801b81526020014281526020015f815260200160405180602001604052805f81525081526020015f67ffffffffffffffff81111561042b5761042a61148c565b5b6040519080825280602002602001820160405280156104595781602001602082028036833780820191505090505b5081526020015f81526020015f15158152505f808681526020019081526020015f205f820151815f015560208201518160010190816104989190611b6e565b506040820151816002015f6101000a81548160ff021916908315150217905550606082015181600301556080820151816004015560a0820151816005015560c0820151816006015560e08201518160070190816104f59190611c95565b50610100820151816008019080519060200190610513929190610d5a565b50610120820151816009015561014082015181600a015f6101000a81548160ff0219169083151502179055509050506001805f8381526020019081526020015f205f6101000a81548160ff02191690831515021790555060035f81548092919061057c90611d91565b9190505550837ff70e83805e6ae804e25e938d53a649ba417cee4db6e52d02412ba22a7ef789f0848484426040516105b79493929190611e04565b60405180910390a250505050565b60025f9054906101000a900473ffffffffffffffffffffffffffffffffffffffff1681565b60035481565b5f805f805f8581526020019081526020015f209050806002015f9054906101000a900460ff1681600a015f9054906101000a900460ff169250925050915091565b610639610de1565b5f808381526020019081526020015f20604051806101600160405290815f820154815260200160018201805461066e906119a1565b80601f016020809104026020016040519081016040528092919081815260200182805461069a906119a1565b80156106e55780601f106106bc576101008083540402835291602001916106e5565b820191905f5260205f20905b8154815290600101906020018083116106c857829003601f168201915b50505050508152602001600282015f9054906101000a900460ff1615151515815260200160038201548152602001600482015481526020016005820154815260200160068201548152602001600782018054610740906119a1565b80601f016020809104026020016040519081016040528092919081815260200182805461076c906119a1565b80156107b75780601f1061078e576101008083540402835291602001916107b7565b820191905f5260205f20905b81548152906001019060200180831161079a57829003601f168201915b505050505081526020016008820180548060200260200160405190810160405280929190818152602001828054801561084257602002820191905f5260205f20905b815f9054906101000a900473ffffffffffffffffffffffffffffffffffffffff1673ffffffffffffffffffffffffffffffffffffffff16815260200190600101908083116107f9575b5050505050815260200160098201548152602001600a82015f9054906101000a900460ff1615151515815250509050919050565b6001602052805f5260405f205f915054906101000a900460ff1681565b5f805f808581526020019081526020015f2090505f5b8160080180549050811015610946578373ffffffffffffffffffffffffffffffffffffffff168260080182815481106108e5576108e4611e42565b5b905f5260205f20015f9054906101000a900473ffffffffffffffffffffffffffffffffffffffff1673ffffffffffffffffffffffffffffffffffffffff16036109335760019250505061094c565b808061093e90611d91565b9150506108a9565b505f9150505b92915050565b60025f9054906101000a900473ffffffffffffffffffffffffffffffffffffffff1673ffffffffffffffffffffffffffffffffffffffff163373ffffffffffffffffffffffffffffffffffffffff16146109e1576040517f08c379a00000000000000000000000000000000000000000000000000000000081526004016109d890611886565b60405180910390fd5b5f805f8981526020019081526020015f2090505f816005015411610a3a576040517f08c379a0000000000000000000000000000000000000000000000000000000008152600401610a3190611eb9565b60405180910390fd5b80600a015f9054906101000a900460ff1615610a8b576040517f08c379a0000000000000000000000000000000000000000000000000000000008152600401610a8290611f21565b60405180910390fd5b5f8787604051602001610a9f929190611fa4565b60405160208183030381529060405280519060200120905081600301548114610afd576040517f08c379a0000000000000000000000000000000000000000000000000000000008152600401610af490612019565b60405180910390fd5b87826002015f6101000a81548160ff02191690831515021790555086826004018190555042826006018190555085826007019081610b3b9190611c95565b508484836008019190610b4f929190610e40565b50828260090181905550600182600a015f6101000a81548160ff021916908315150217905550887f7bb30b97bfda7b24f7fcc7279a9cc228c67106944bafbc2b40374cc9d0a447ab89428989899050604051610bae9493929190612037565b60405180910390a2505050505050505050565b5f602052805f5260405f205f91509050805f015490806001018054610be5906119a1565b80601f0160208091040260200160405190810160405280929190818152602001828054610c11906119a1565b8015610c5c5780601f10610c3357610100808354040283529160200191610c5c565b820191905f5260205f20905b815481529060010190602001808311610c3f57829003601f168201915b505050505090806002015f9054906101000a900460ff1690806003015490806004015490806005015490806006015490806007018054610c9b906119a1565b80601f0160208091040260200160405190810160405280929190818152602001828054610cc7906119a1565b8015610d125780601f10610ce957610100808354040283529160200191610d12565b820191905f5260205f20905b815481529060010190602001808311610cf557829003601f168201915b50505050509080600901549080600a015f9054906101000a900460ff1690508a565b5f60015f8381526020019081526020015f205f9054906101000a900460ff169050919050565b828054828255905f5260205f20908101928215610dd0579160200282015b82811115610dcf578251825f6101000a81548173ffffffffffffffffffffffffffffffffffffffff021916908373ffffffffffffffffffffffffffffffffffffffff16021790555091602001919060010190610d78565b5b509050610ddd9190610edd565b5090565b6040518061016001604052805f8019168152602001606081526020015f151581526020015f80191681526020015f80191681526020015f81526020015f815260200160608152602001606081526020015f81526020015f151581525090565b828054828255905f5260205f20908101928215610ecc579160200282015b82811115610ecb57823573ffffffffffffffffffffffffffffffffffffffff16825f6101000a81548173ffffffffffffffffffffffffffffffffffffffff021916908373ffffffffffffffffffffffffffffffffffffffff16021790555091602001919060010190610e5e565b5b509050610ed99190610edd565b5090565b5b80821115610ef4575f815f905550600101610ede565b5090565b5f604051905090565b5f80fd5b5f80fd5b5f819050919050565b610f1b81610f09565b8114610f25575f80fd5b50565b5f81359050610f3681610f12565b92915050565b5f80fd5b5f80fd5b5f80fd5b5f8083601f840112610f5d57610f5c610f3c565b5b8235905067ffffffffffffffff811115610f7a57610f79610f40565b5b602083019150836001820283011115610f9657610f95610f44565b5b9250929050565b5f805f8060608587031215610fb557610fb4610f01565b5b5f610fc287828801610f28565b945050602085013567ffffffffffffffff811115610fe357610fe2610f05565b5b610fef87828801610f48565b9350935050604061100287828801610f28565b91505092959194509250565b5f73ffffffffffffffffffffffffffffffffffffffff82169050919050565b5f6110378261100e565b9050919050565b6110478161102d565b82525050565b5f6020820190506110605f83018461103e565b92915050565b5f819050919050565b61107881611066565b82525050565b5f6020820190506110915f83018461106f565b92915050565b5f602082840312156110ac576110ab610f01565b5b5f6110b984828501610f28565b91505092915050565b5f8115159050919050565b6110d6816110c2565b82525050565b5f6040820190506110ef5f8301856110cd565b6110fc60208301846110cd565b9392505050565b61110c81610f09565b82525050565b5f81519050919050565b5f82825260208201905092915050565b5f5b8381101561114957808201518184015260208101905061112e565b5f8484015250505050565b5f601f19601f8301169050919050565b5f61116e82611112565b611178818561111c565b935061118881856020860161112c565b61119181611154565b840191505092915050565b6111a5816110c2565b82525050565b6111b481611066565b82525050565b5f81519050919050565b5f82825260208201905092915050565b5f6111de826111ba565b6111e881856111c4565b93506111f881856020860161112c565b61120181611154565b840191505092915050565b5f81519050919050565b5f82825260208201905092915050565b5f819050602082019050919050565b61123e8161102d565b82525050565b5f61124f8383611235565b60208301905092915050565b5f602082019050919050565b5f6112718261120c565b61127b8185611216565b935061128683611226565b805f5b838110156112b657815161129d8882611244565b97506112a88361125b565b925050600181019050611289565b5085935050505092915050565b5f61016083015f8301516112d95f860182611103565b50602083015184820360208601526112f18282611164565b9150506040830151611306604086018261119c565b5060608301516113196060860182611103565b50608083015161132c6080860182611103565b5060a083015161133f60a08601826111ab565b5060c083015161135260c08601826111ab565b5060e083015184820360e086015261136a82826111d4565b9150506101008301518482036101008601526113868282611267565b91505061012083015161139d6101208601826111ab565b506101408301516113b261014086018261119c565b508091505092915050565b5f6020820190508181035f8301526113d581846112c3565b905092915050565b5f6020820190506113f05f8301846110cd565b92915050565b6113ff8161102d565b8114611409575f80fd5b50565b5f8135905061141a816113f6565b92915050565b5f806040838503121561143657611435610f01565b5b5f61144385828601610f28565b92505060206114548582860161140c565b9150509250929050565b611467816110c2565b8114611471575f80fd5b50565b5f813590506114828161145e565b92915050565b5f80fd5b7f4e487b71000000000000000000000000000000000000000000000000000000005f52604160045260245ffd5b6114c282611154565b810181811067ffffffffffffffff821117156114e1576114e061148c565b5b80604052505050565b5f6114f3610ef8565b90506114ff82826114b9565b919050565b5f67ffffffffffffffff82111561151e5761151d61148c565b5b61152782611154565b9050602081019050919050565b828183375f83830152505050565b5f61155461154f84611504565b6114ea565b9050828152602081018484840111156115705761156f611488565b5b61157b848285611534565b509392505050565b5f82601f83011261159757611596610f3c565b5b81356115a7848260208601611542565b91505092915050565b5f8083601f8401126115c5576115c4610f3c565b5b8235905067ffffffffffffffff8111156115e2576115e1610f40565b5b6020830191508360208202830111156115fe576115fd610f44565b5b9250929050565b61160e81611066565b8114611618575f80fd5b50565b5f8135905061162981611605565b92915050565b5f805f805f805f60c0888a03121561164a57611649610f01565b5b5f6116578a828b01610f28565b97505060206116688a828b01611474565b96505060406116798a828b01610f28565b955050606088013567ffffffffffffffff81111561169a57611699610f05565b5b6116a68a828b01611583565b945050608088013567ffffffffffffffff8111156116c7576116c6610f05565b5b6116d38a828b016115b0565b935093505060a06116e68a828b0161161b565b91505092959891949750929550565b6116fe81610f09565b82525050565b5f82825260208201905092915050565b5f61171e82611112565b6117288185611704565b935061173881856020860161112c565b61174181611154565b840191505092915050565b5f82825260208201905092915050565b5f611766826111ba565b611770818561174c565b935061178081856020860161112c565b61178981611154565b840191505092915050565b5f610140820190506117a85f83018d6116f5565b81810360208301526117ba818c611714565b90506117c9604083018b6110cd565b6117d6606083018a6116f5565b6117e360808301896116f5565b6117f060a083018861106f565b6117fd60c083018761106f565b81810360e083015261180f818661175c565b905061181f61010083018561106f565b61182d6101208301846110cd565b9b9a5050505050505050505050565b7f4f6e6c792067616d6520736572766572000000000000000000000000000000005f82015250565b5f611870601083611704565b915061187b8261183c565b602082019050919050565b5f6020820190508181035f83015261189d81611864565b9050919050565b7f436f6d6d69746d656e7420616c726561647920657869737473000000000000005f82015250565b5f6118d8601983611704565b91506118e3826118a4565b602082019050919050565b5f6020820190508181035f830152611905816118cc565b9050919050565b7f53657373696f6e20616c726561647920657869737473000000000000000000005f82015250565b5f611940601683611704565b915061194b8261190c565b602082019050919050565b5f6020820190508181035f83015261196d81611934565b9050919050565b7f4e487b71000000000000000000000000000000000000000000000000000000005f52602260045260245ffd5b5f60028204905060018216806119b857607f821691505b6020821081036119cb576119ca611974565b5b50919050565b5f819050815f5260205f209050919050565b5f6020601f8301049050919050565b5f82821b905092915050565b5f60088302611a2d7fffffffffffffffffffffffffffffffffffffffffffffffffffffffffffffffff826119f2565b611a3786836119f2565b95508019841693508086168417925050509392505050565b5f819050919050565b5f611a72611a6d611a6884611066565b611a4f565b611066565b9050919050565b5f819050919050565b611a8b83611a58565b611a9f611a9782611a79565b8484546119fe565b825550505050565b5f90565b611ab3611aa7565b611abe818484611a82565b505050565b5b81811015611ae157611ad65f82611aab565b600181019050611ac4565b5050565b601f821115611b2657611af7816119d1565b611b00846119e3565b81016020851015611b0f578190505b611b23611b1b856119e3565b830182611ac3565b50505b505050565b5f82821c905092915050565b5f611b465f1984600802611b2b565b1980831691505092915050565b5f611b5e8383611b37565b9150826002028217905092915050565b611b7782611112565b67ffffffffffffffff811115611b9057611b8f61148c565b5b611b9a82546119a1565b611ba5828285611ae5565b5f60209050601f831160018114611bd6575f8415611bc4578287015190505b611bce8582611b53565b865550611c35565b601f198416611be4866119d1565b5f5b82811015611c0b57848901518255600182019150602085019450602081019050611be6565b86831015611c285784890151611c24601f891682611b37565b8355505b6001600288020188555050505b505050505050565b5f819050815f5260205f209050919050565b601f821115611c9057611c6181611c3d565b611c6a846119e3565b81016020851015611c79578190505b611c8d611c85856119e3565b830182611ac3565b50505b505050565b611c9e826111ba565b67ffffffffffffffff811115611cb757611cb661148c565b5b611cc182546119a1565b611ccc828285611c4f565b5f60209050601f831160018114611cfd575f8415611ceb578287015190505b611cf58582611b53565b865550611d5c565b601f198416611d0b86611c3d565b5f5b82811015611d3257848901518255600182019150602085019450602081019050611d0d565b86831015611d4f5784890151611d4b601f891682611b37565b8355505b6001600288020188555050505b505050505050565b7f4e487b71000000000000000000000000000000000000000000000000000000005f52601160045260245ffd5b5f611d9b82611066565b91507fffffffffffffffffffffffffffffffffffffffffffffffffffffffffffffffff8203611dcd57611dcc611d64565b5b600182019050919050565b5f611de38385611704565b9350611df0838584611534565b611df983611154565b840190509392505050565b5f6060820190508181035f830152611e1d818688611dd8565b9050611e2c60208301856116f5565b611e39604083018461106f565b95945050505050565b7f4e487b71000000000000000000000000000000000000000000000000000000005f52603260045260245ffd5b7f47616d65206e6f7420666f756e640000000000000000000000000000000000005f82015250565b5f611ea3600e83611704565b9150611eae82611e6f565b602082019050919050565b5f6020820190508181035f830152611ed081611e97565b9050919050565b7f416c72656164792066696e616c697a65640000000000000000000000000000005f82015250565b5f611f0b601183611704565b9150611f1682611ed7565b602082019050919050565b5f6020820190508181035f830152611f3881611eff565b9050919050565b5f8160f81b9050919050565b5f611f5582611f3f565b9050919050565b5f611f6682611f4b565b9050919050565b611f7e611f79826110c2565b611f5c565b82525050565b5f819050919050565b611f9e611f9982610f09565b611f84565b82525050565b5f611faf8285611f6d565b600182019150611fbf8284611f8d565b6020820191508190509392505050565b7f436f6d6d69746d656e74206d69736d61746368000000000000000000000000005f82015250565b5f612003601383611704565b915061200e82611fcf565b602082019050919050565b5f6020820190508181035f83015261203081611ff7565b9050919050565b5f60808201905061204a5f8301876110cd565b612057602083018661106f565b8181036040830152612069818561175c565b9050612078606083018461106f565b9594505050505056fea26469706673582212201698f68d6e4a0b2437512cdc9229275eebc8f7336381bb0f24150cc3824b71fe64736f6c63430008140033","linkReferences":{}},"methodIdentifiers":{"commitGame(bytes32,string,bytes32)":"07cb4b2e","commitments(bytes32)":"839df945","gameCount()":"4d1975b4","gameServer()":"29cd564c","games(bytes32)":"f579f882","getGame(bytes32)":"73931bbf","getOutcome(bytes32)":"5d1a3b82","isWinner(bytes32,address)":"9cc19f5b","revealGame(bytes32,bool,bytes32,bytes,address[],uint256)":"b102bd59","verifyCommitment(bytes32)":"fc6326ce"},"id":21}