{"abi":[{"type":"constructor","inputs":[{"name":"_gameServer","type":"address","internalType":"address"}],"stateMutability":"nonpayable"},{"type":"function","name":"commitGame","inputs":[{"name":"sessionId","type":"bytes32","internalType":"bytes32"},{"name":"question","type":"string","internalType":"string"},{"name":"commitment","type":"bytes32","internalType":"bytes32"}],"outputs":[],"stateMutability":"nonpayable"},{"type":"function","name":"commitments","inputs":[{"name":"","type":"bytes32","internalType":"bytes32"}],"outputs":[{"name":"","type":"bool","internalType":"bool"}],"stateMutability":"view"},{"type":"function","name":"dstackVerifier","inputs":[],"outputs":[{"name":"","type":"address","internalType":"address"}],"stateMutability":"view"},{"type":"function","name":"gameCount","inputs":[],"outputs":[{"name":"","type":"uint256","internalType":"uint256"}],"stateMutability":"view"},{"type":"function","name":"gameServer","inputs":[],"outputs":[{"name":"","type":"address","internalType":"address"}],"stateMutability":"view"},{"type":"function","name":"games","inputs":[{"name":"","type":"bytes32","internalType":"bytes32"}],"outputs":[{"name":"sessionId","type":"bytes32","internalType":"bytes32"},{"name":"question","type":"string","internalType":"string"},{"name":"outcome","type":"bool","internalType":"bool"},{"name":"commitment","type":"bytes32","internalType":"bytes32"},{"name":"salt","type":"bytes32","internalType":"bytes32"},{"name":"startTime","type":"uint256","internalType":"uint256"},{"name":"endTime","type":"uint256","internalType":"uint256"},{"name":"teeQuote","type":"bytes","internalType":"bytes"},{"name":"totalPayout","type":"uint256","internalType":"uint256"},{"name":"finalized","type":"bool","internalType":"bool"}],"stateMutability":"view"},{"type":"function","name":"getGame","inputs":[{"name":"sessionId","type":"bytes32","internalType":"bytes32"}],"outputs":[{"name":"","type":"tuple","internalType":"struct PredictionOracle.GameOutcome","components":[{"name":"sessionId","type":"bytes32","internalType":"bytes32"},{"name":"question","type":"string","internalType":"string"},{"name":"outcome","type":"bool","internalType":"bool"},{"name":"commitment","type":"bytes32","internalType":"bytes32"},{"name":"salt","type":"bytes32","internalType":"bytes32"},{"name":"startTime","type":"uint256","internalType":"uint256"},{"name":"endTime","type":"uint256","internalType":"uint256"},{"name":"teeQuote","type":"bytes","internalType":"bytes"},{"name":"winners","type":"address[]","internalType":"address[]"},{"name":"totalPayout","type":"uint256","internalType":"uint256"},{"name":"finalized","type":"bool","internalType":"bool"}]}],"stateMutability":"view"},{"type":"function","name":"getOutcome","inputs":[{"name":"sessionId","type":"bytes32","internalType":"bytes32"}],"outputs":[{"name":"outcome","type":"bool","internalType":"bool"},{"name":"finalized","type":"bool","internalType":"bool"}],"stateMutability":"view"},{"type":"function","name":"isWinner","inputs":[{"name":"sessionId","type":"bytes32","internalType":"bytes32"},{"name":"player","type":"address","internalType":"address"}],"outputs":[{"name":"","type":"bool","internalType":"bool"}],"stateMutability":"view"},{"type":"function","name":"revealGame","inputs":[{"name":"sessionId","type":"bytes32","internalType":"bytes32"},{"name":"outcome","type":"bool","internalType":"bool"},{"name":"salt","type":"bytes32","internalType":"bytes32"},{"name":"teeQuote","type":"bytes","internalType":"bytes"},{"name":"winners","type":"address[]","internalType":"address[]"},{"name":"totalPayout","type":"uint256","internalType":"uint256"}],"outputs":[],"stateMutability":"nonpayable"},{"type":"function","name":"setDstackVerifier","inputs":[{"name":"_dstackVerifier","type":"address","internalType":"address"}],"outputs":[],"stateMutability":"nonpayable"},{"type":"function","name":"verifyCommitment","inputs":[{"name":"commitment","type":"bytes32","internalType":"bytes32"}],"outputs":[{"name":"","type":"bool","internalType":"bool"}],"stateMutability":"view"},{"type":"event","name":"GameCommitted","inputs":[{"name":"sessionId","type":"bytes32","indexed":true,"internalType":"bytes32"},{"name":"question","type":"string","indexed":false,"internalType":"string"},{"name":"commitment","type":"bytes32","indexed":false,"internalType":"bytes32"},{"name":"startTime","type":"uint256","indexed":false,"internalType":"uint256"}],"anonymous":false},{"type":"event","name":"GameRevealed","inputs":[{"name":"sessionId","type":"bytes32","indexed":true,"internalType":"bytes32"},{"name":"outcome","type":"bool","indexed":false,"internalType":"bool"},{"name":"endTime","type":"uint256","indexed":false,"internalType":"uint256"},{"name":"teeQuote","type":"bytes","indexed":false,"internalType":"bytes"},{"name":"winnersCount","type":"uint256","indexed":false,"internalType":"uint256"}],"anonymous":false}],"bytecode":{"object":"0x608060405234801562000010575f80fd5b50604051620026dd380380620026dd833981810160405281019062000036919062000122565b8060025f6101000a81548173ffffffffffffffffffffffffffffffffffffffff021916908373ffffffffffffffffffffffffffffffffffffffff1602179055505f60045f6101000a81548173ffffffffffffffffffffffffffffffffffffffff021916908373ffffffffffffffffffffffffffffffffffffffff1602179055505062000152565b5f80fd5b5f73ffffffffffffffffffffffffffffffffffffffff82169050919050565b5f620000ec82620000c1565b9050919050565b620000fe81620000e0565b811462000109575f80fd5b50565b5f815190506200011c81620000f3565b92915050565b5f602082840312156200013a5762000139620000bd565b5b5f62000149848285016200010c565b91505092915050565b61257d80620001605f395ff3fe608060405234801561000f575f80fd5b50600436106100b2575f3560e01c8063839df9451161006f578063839df9451461018d5780639cc19f5b146101bd578063b102bd59146101ed578063bcf27c9314610209578063f579f88214610225578063fc6326ce1461025e576100b2565b806307cb4b2e146100b657806329cd564c146100d25780634144a07c146100f05780634d1975b41461010e5780635d1a3b821461012c57806373931bbf1461015d575b5f80fd5b6100d060048036038101906100cb91906112de565b61028e565b005b6100da610615565b6040516100e7919061138e565b60405180910390f35b6100f861063a565b604051610105919061138e565b60405180910390f35b61011661065f565b60405161012391906113bf565b60405180910390f35b610146600480360381019061014191906113d8565b610665565b60405161015492919061141d565b60405180910390f35b610177600480360381019061017291906113d8565b6106a6565b60405161018491906116fe565b60405180910390f35b6101a760048036038101906101a291906113d8565b6108eb565b6040516101b4919061171e565b60405180910390f35b6101d760048036038101906101d29190611761565b610908565b6040516101e4919061171e565b60405180910390f35b61020760048036038101906102029190611970565b6109c7565b005b610223600480360381019061021e9190611a36565b610e30565b005b61023f600480360381019061023a91906113d8565b610f02565b6040516102559a99989796959493929190611b00565b60405180910390f35b610278600480360381019061027391906113d8565b611075565b604051610285919061171e565b60405180910390f35b60025f9054906101000a900473ffffffffffffffffffffffffffffffffffffffff1673ffffffffffffffffffffffffffffffffffffffff163373ffffffffffffffffffffffffffffffffffffffff161461031d576040517f08c379a000000000000000000000000000000000000000000000000000000000815260040161031490611bf2565b60405180910390fd5b60015f8281526020019081526020015f205f9054906101000a900460ff161561037b576040517f08c379a000000000000000000000000000000000000000000000000000000000815260040161037290611c5a565b60405180910390fd5b5f805f8681526020019081526020015f2060050154146103d0576040517f08c379a00000000000000000000000000000000000000000000000000000000081526004016103c790611cc2565b60405180910390fd5b60405180610160016040528085815260200184848080601f0160208091040260200160405190810160405280939291908181526020018383808284375f81840152601f19601f8201169050808301925050505050505081526020015f151581526020018281526020015f801b81526020014281526020015f815260200160405180602001604052805f81525081526020015f67ffffffffffffffff81111561047b5761047a6117cd565b5b6040519080825280602002602001820160405280156104a95781602001602082028036833780820191505090505b5081526020015f81526020015f15158152505f808681526020019081526020015f205f820151815f015560208201518160010190816104e89190611eda565b506040820151816002015f6101000a81548160ff021916908315150217905550606082015181600301556080820151816004015560a0820151816005015560c0820151816006015560e08201518160070190816105459190612001565b5061010082015181600801908051906020019061056392919061109b565b50610120820151816009015561014082015181600a015f6101000a81548160ff0219169083151502179055509050506001805f8381526020019081526020015f205f6101000a81548160ff02191690831515021790555060035f8154809291906105cc906120fd565b9190505550837ff70e83805e6ae804e25e938d53a649ba417cee4db6e52d02412ba22a7ef789f0848484426040516106079493929190612170565b60405180910390a250505050565b60025f9054906101000a900473ffffffffffffffffffffffffffffffffffffffff1681565b60045f9054906101000a900473ffffffffffffffffffffffffffffffffffffffff1681565b60035481565b5f805f805f8581526020019081526020015f209050806002015f9054906101000a900460ff1681600a015f9054906101000a900460ff169250925050915091565b6106ae611122565b5f808381526020019081526020015f20604051806101600160405290815f82015481526020016001820180546106e390611d0d565b80601f016020809104026020016040519081016040528092919081815260200182805461070f90611d0d565b801561075a5780601f106107315761010080835404028352916020019161075a565b820191905f5260205f20905b81548152906001019060200180831161073d57829003601f168201915b50505050508152602001600282015f9054906101000a900460ff16151515158152602001600382015481526020016004820154815260200160058201548152602001600682015481526020016007820180546107b590611d0d565b80601f01602080910402602001604051908101604052809291908181526020018280546107e190611d0d565b801561082c5780601f106108035761010080835404028352916020019161082c565b820191905f5260205f20905b81548152906001019060200180831161080f57829003601f168201915b50505050508152602001600882018054806020026020016040519081016040528092919081815260200182805480156108b757602002820191905f5260205f20905b815f9054906101000a900473ffffffffffffffffffffffffffffffffffffffff1673ffffffffffffffffffffffffffffffffffffffff168152602001906001019080831161086e575b5050505050815260200160098201548152602001600a82015f9054906101000a900460ff1615151515815250509050919050565b6001602052805f5260405f205f915054906101000a900460ff1681565b5f805f808581526020019081526020015f2090505f5b81600801805490508110156109bb578373ffffffffffffffffffffffffffffffffffffffff1682600801828154811061095a576109596121ae565b5b905f5260205f20015f9054906101000a900473ffffffffffffffffffffffffffffffffffffffff1673ffffffffffffffffffffffffffffffffffffffff16036109a8576001925050506109c1565b80806109b3906120fd565b91505061091e565b505f9150505b92915050565b60025f9054906101000a900473ffffffffffffffffffffffffffffffffffffffff1673ffffffffffffffffffffffffffffffffffffffff163373ffffffffffffffffffffffffffffffffffffffff1614610a56576040517f08c379a0000000000000000000000000000000000000000000000000000000008152600401610a4d90611bf2565b60405180910390fd5b5f805f8981526020019081526020015f2090505f816005015411610aaf576040517f08c379a0000000000000000000000000000000000000000000000000000000008152600401610aa690612225565b60405180910390fd5b80600a015f9054906101000a900460ff1615610b00576040517f08c379a0000000000000000000000000000000000000000000000000000000008152600401610af79061228d565b60405180910390fd5b5f8787604051602001610b14929190612310565b60405160208183030381529060405280519060200120905081600301548114610b72576040517f08c379a0000000000000000000000000000000000000000000000000000000008152600401610b6990612385565b60405180910390fd5b5f73ffffffffffffffffffffffffffffffffffffffff1660045f9054906101000a900473ffffffffffffffffffffffffffffffffffffffff1673ffffffffffffffffffffffffffffffffffffffff1614610d6c575f8060045f9054906101000a900473ffffffffffffffffffffffffffffffffffffffff1673ffffffffffffffffffffffffffffffffffffffff16888c8c42604051602001610c16939291906123a3565b60405160208183030381529060405280519060200120604051602401610c3d9291906123d8565b6040516020818303038152906040527ff9744de6000000000000000000000000000000000000000000000000000000007bffffffffffffffffffffffffffffffffffffffffffffffffffffffff19166020820180517bffffffffffffffffffffffffffffffffffffffffffffffffffffffff8381831617835250505050604051610cc79190612440565b5f604051808303815f865af19150503d805f8114610d00576040519150601f19603f3d011682016040523d82523d5f602084013e610d05565b606091505b50915091508115610d69575f81806020019051810190610d25919061246a565b905080610d67576040517f08c379a0000000000000000000000000000000000000000000000000000000008152600401610d5e906124df565b60405180910390fd5b505b50505b87826002015f6101000a81548160ff02191690831515021790555086826004018190555042826006018190555085826007019081610daa9190612001565b508484836008019190610dbe929190611181565b50828260090181905550600182600a015f6101000a81548160ff021916908315150217905550887f7bb30b97bfda7b24f7fcc7279a9cc228c67106944bafbc2b40374cc9d0a447ab89428989899050604051610e1d94939291906124fd565b60405180910390a2505050505050505050565b60025f9054906101000a900473ffffffffffffffffffffffffffffffffffffffff1673ffffffffffffffffffffffffffffffffffffffff163373ffffffffffffffffffffffffffffffffffffffff1614610ebf576040517f08c379a0000000000000000000000000000000000000000000000000000000008152600401610eb690611bf2565b60405180910390fd5b8060045f6101000a81548173ffffffffffffffffffffffffffffffffffffffff021916908373ffffffffffffffffffffffffffffffffffffffff16021790555050565b5f602052805f5260405f205f91509050805f015490806001018054610f2690611d0d565b80601f0160208091040260200160405190810160405280929190818152602001828054610f5290611d0d565b8015610f9d5780601f10610f7457610100808354040283529160200191610f9d565b820191905f5260205f20905b815481529060010190602001808311610f8057829003601f168201915b505050505090806002015f9054906101000a900460ff1690806003015490806004015490806005015490806006015490806007018054610fdc90611d0d565b80601f016020809104026020016040519081016040528092919081815260200182805461100890611d0d565b80156110535780601f1061102a57610100808354040283529160200191611053565b820191905f5260205f20905b81548152906001019060200180831161103657829003601f168201915b50505050509080600901549080600a015f9054906101000a900460ff1690508a565b5f60015f8381526020019081526020015f205f9054906101000a900460ff169050919050565b828054828255905f5260205f20908101928215611111579160200282015b82811115611110578251825f6101000a81548173ffffffffffffffffffffffffffffffffffffffff021916908373ffffffffffffffffffffffffffffffffffffffff160217905550916020019190600101906110b9565b5b50905061111e919061121e565b5090565b6040518061016001604052805f8019168152602001606081526020015f151581526020015f80191681526020015f80191681526020015f81526020015f815260200160608152602001606081526020015f81526020015f151581525090565b828054828255905f5260205f2090810192821561120d579160200282015b8281111561120c57823573ffffffffffffffffffffffffffffffffffffffff16825f6101000a81548173ffffffffffffffffffffffffffffffffffffffff021916908373ffffffffffffffffffffffffffffffffffffffff1602179055509160200191906001019061119f565b5b50905061121a919061121e565b5090565b5b80821115611235575f815f90555060010161121f565b5090565b5f604051905090565b5f80fd5b5f80fd5b5f819050919050565b61125c8161124a565b8114611266575f80fd5b50565b5f8135905061127781611253565b92915050565b5f80fd5b5f80fd5b5f80fd5b5f8083601f84011261129e5761129d61127d565b5b8235905067ffffffffffffffff8111156112bb576112ba611281565b5b6020830191508360018202830111156112d7576112d6611285565b5b9250929050565b5f805f80606085870312156112f6576112f5611242565b5b5f61130387828801611269565b945050602085013567ffffffffffffffff81111561132457611323611246565b5b61133087828801611289565b9350935050604061134387828801611269565b91505092959194509250565b5f73ffffffffffffffffffffffffffffffffffffffff82169050919050565b5f6113788261134f565b9050919050565b6113888161136e565b82525050565b5f6020820190506113a15f83018461137f565b92915050565b5f819050919050565b6113b9816113a7565b82525050565b5f6020820190506113d25f8301846113b0565b92915050565b5f602082840312156113ed576113ec611242565b5b5f6113fa84828501611269565b91505092915050565b5f8115159050919050565b61141781611403565b82525050565b5f6040820190506114305f83018561140e565b61143d602083018461140e565b9392505050565b61144d8161124a565b82525050565b5f81519050919050565b5f82825260208201905092915050565b5f5b8381101561148a57808201518184015260208101905061146f565b5f8484015250505050565b5f601f19601f8301169050919050565b5f6114af82611453565b6114b9818561145d565b93506114c981856020860161146d565b6114d281611495565b840191505092915050565b6114e681611403565b82525050565b6114f5816113a7565b82525050565b5f81519050919050565b5f82825260208201905092915050565b5f61151f826114fb565b6115298185611505565b935061153981856020860161146d565b61154281611495565b840191505092915050565b5f81519050919050565b5f82825260208201905092915050565b5f819050602082019050919050565b61157f8161136e565b82525050565b5f6115908383611576565b60208301905092915050565b5f602082019050919050565b5f6115b28261154d565b6115bc8185611557565b93506115c783611567565b805f5b838110156115f75781516115de8882611585565b97506115e98361159c565b9250506001810190506115ca565b5085935050505092915050565b5f61016083015f83015161161a5f860182611444565b506020830151848203602086015261163282826114a5565b915050604083015161164760408601826114dd565b50606083015161165a6060860182611444565b50608083015161166d6080860182611444565b5060a083015161168060a08601826114ec565b5060c083015161169360c08601826114ec565b5060e083015184820360e08601526116ab8282611515565b9150506101008301518482036101008601526116c782826115a8565b9150506101208301516116de6101208601826114ec565b506101408301516116f36101408601826114dd565b508091505092915050565b5f6020820190508181035f8301526117168184611604565b905092915050565b5f6020820190506117315f83018461140e565b92915050565b6117408161136e565b811461174a575f80fd5b50565b5f8135905061175b81611737565b92915050565b5f806040838503121561177757611776611242565b5b5f61178485828601611269565b92505060206117958582860161174d565b9150509250929050565b6117a881611403565b81146117b2575f80fd5b50565b5f813590506117c38161179f565b92915050565b5f80fd5b7f4e487b71000000000000000000000000000000000000000000000000000000005f52604160045260245ffd5b61180382611495565b810181811067ffffffffffffffff82111715611822576118216117cd565b5b80604052505050565b5f611834611239565b905061184082826117fa565b919050565b5f67ffffffffffffffff82111561185f5761185e6117cd565b5b61186882611495565b9050602081019050919050565b828183375f83830152505050565b5f61189561189084611845565b61182b565b9050828152602081018484840111156118b1576118b06117c9565b5b6118bc848285611875565b509392505050565b5f82601f8301126118d8576118d761127d565b5b81356118e8848260208601611883565b91505092915050565b5f8083601f8401126119065761190561127d565b5b8235905067ffffffffffffffff81111561192357611922611281565b5b60208301915083602082028301111561193f5761193e611285565b5b9250929050565b61194f816113a7565b8114611959575f80fd5b50565b5f8135905061196a81611946565b92915050565b5f805f805f805f60c0888a03121561198b5761198a611242565b5b5f6119988a828b01611269565b97505060206119a98a828b016117b5565b96505060406119ba8a828b01611269565b955050606088013567ffffffffffffffff8111156119db576119da611246565b5b6119e78a828b016118c4565b945050608088013567ffffffffffffffff811115611a0857611a07611246565b5b611a148a828b016118f1565b935093505060a0611a278a828b0161195c565b91505092959891949750929550565b5f60208284031215611a4b57611a4a611242565b5b5f611a588482850161174d565b91505092915050565b611a6a8161124a565b82525050565b5f82825260208201905092915050565b5f611a8a82611453565b611a948185611a70565b9350611aa481856020860161146d565b611aad81611495565b840191505092915050565b5f82825260208201905092915050565b5f611ad2826114fb565b611adc8185611ab8565b9350611aec81856020860161146d565b611af581611495565b840191505092915050565b5f61014082019050611b145f83018d611a61565b8181036020830152611b26818c611a80565b9050611b35604083018b61140e565b611b42606083018a611a61565b611b4f6080830189611a61565b611b5c60a08301886113b0565b611b6960c08301876113b0565b81810360e0830152611b7b8186611ac8565b9050611b8b6101008301856113b0565b611b9961012083018461140e565b9b9a5050505050505050505050565b7f4f6e6c792067616d6520736572766572000000000000000000000000000000005f82015250565b5f611bdc601083611a70565b9150611be782611ba8565b602082019050919050565b5f6020820190508181035f830152611c0981611bd0565b9050919050565b7f436f6d6d69746d656e7420616c726561647920657869737473000000000000005f82015250565b5f611c44601983611a70565b9150611c4f82611c10565b602082019050919050565b5f6020820190508181035f830152611c7181611c38565b9050919050565b7f53657373696f6e20616c726561647920657869737473000000000000000000005f82015250565b5f611cac601683611a70565b9150611cb782611c78565b602082019050919050565b5f6020820190508181035f830152611cd981611ca0565b9050919050565b7f4e487b71000000000000000000000000000000000000000000000000000000005f52602260045260245ffd5b5f6002820490506001821680611d2457607f821691505b602082108103611d3757611d36611ce0565b5b50919050565b5f819050815f5260205f209050919050565b5f6020601f8301049050919050565b5f82821b905092915050565b5f60088302611d997fffffffffffffffffffffffffffffffffffffffffffffffffffffffffffffffff82611d5e565b611da38683611d5e565b95508019841693508086168417925050509392505050565b5f819050919050565b5f611dde611dd9611dd4846113a7565b611dbb565b6113a7565b9050919050565b5f819050919050565b611df783611dc4565b611e0b611e0382611de5565b848454611d6a565b825550505050565b5f90565b611e1f611e13565b611e2a818484611dee565b505050565b5b81811015611e4d57611e425f82611e17565b600181019050611e30565b5050565b601f821115611e9257611e6381611d3d565b611e6c84611d4f565b81016020851015611e7b578190505b611e8f611e8785611d4f565b830182611e2f565b50505b505050565b5f82821c905092915050565b5f611eb25f1984600802611e97565b1980831691505092915050565b5f611eca8383611ea3565b9150826002028217905092915050565b611ee382611453565b67ffffffffffffffff811115611efc57611efb6117cd565b5b611f068254611d0d565b611f11828285611e51565b5f60209050601f831160018114611f42575f8415611f30578287015190505b611f3a8582611ebf565b865550611fa1565b601f198416611f5086611d3d565b5f5b82811015611f7757848901518255600182019150602085019450602081019050611f52565b86831015611f945784890151611f90601f891682611ea3565b8355505b6001600288020188555050505b505050505050565b5f819050815f5260205f209050919050565b601f821115611ffc57611fcd81611fa9565b611fd684611d4f565b81016020851015611fe5578190505b611ff9611ff185611d4f565b830182611e2f565b50505b505050565b61200a826114fb565b67ffffffffffffffff811115612023576120226117cd565b5b61202d8254611d0d565b612038828285611fbb565b5f60209050601f831160018114612069575f8415612057578287015190505b6120618582611ebf565b8655506120c8565b601f19841661207786611fa9565b5f5b8281101561209e57848901518255600182019150602085019450602081019050612079565b868310156120bb57848901516120b7601f891682611ea3565b8355505b6001600288020188555050505b505050505050565b7f4e487b71000000000000000000000000000000000000000000000000000000005f52601160045260245ffd5b5f612107826113a7565b91507fffffffffffffffffffffffffffffffffffffffffffffffffffffffffffffffff8203612139576121386120d0565b5b600182019050919050565b5f61214f8385611a70565b935061215c838584611875565b61216583611495565b840190509392505050565b5f6060820190508181035f830152612189818688612144565b90506121986020830185611a61565b6121a560408301846113b0565b95945050505050565b7f4e487b71000000000000000000000000000000000000000000000000000000005f52603260045260245ffd5b7f47616d65206e6f7420666f756e640000000000000000000000000000000000005f82015250565b5f61220f600e83611a70565b915061221a826121db565b602082019050919050565b5f6020820190508181035f83015261223c81612203565b9050919050565b7f416c72656164792066696e616c697a65640000000000000000000000000000005f82015250565b5f612277601183611a70565b915061228282612243565b602082019050919050565b5f6020820190508181035f8301526122a48161226b565b9050919050565b5f8160f81b9050919050565b5f6122c1826122ab565b9050919050565b5f6122d2826122b7565b9050919050565b6122ea6122e582611403565b6122c8565b82525050565b5f819050919050565b61230a6123058261124a565b6122f0565b82525050565b5f61231b82856122d9565b60018201915061232b82846122f9565b6020820191508190509392505050565b7f436f6d6d69746d656e74206d69736d61746368000000000000000000000000005f82015250565b5f61236f601383611a70565b915061237a8261233b565b602082019050919050565b5f6020820190508181035f83015261239c81612363565b9050919050565b5f6060820190506123b65f830186611a61565b6123c3602083018561140e565b6123d060408301846113b0565b949350505050565b5f6040820190508181035f8301526123f08185611ac8565b90506123ff6020830184611a61565b9392505050565b5f81905092915050565b5f61241a826114fb565b6124248185612406565b935061243481856020860161146d565b80840191505092915050565b5f61244b8284612410565b915081905092915050565b5f815190506124648161179f565b92915050565b5f6020828403121561247f5761247e611242565b5b5f61248c84828501612456565b91505092915050565b7f5445452071756f746520766572696669636174696f6e206661696c65640000005f82015250565b5f6124c9601d83611a70565b91506124d482612495565b602082019050919050565b5f6020820190508181035f8301526124f6816124bd565b9050919050565b5f6080820190506125105f83018761140e565b61251d60208301866113b0565b818103604083015261252f8185611ac8565b905061253e60608301846113b0565b9594505050505056fea2646970667358221220647a9a7248cf4839c7bf88e07d80476b90413a6d6ac8d212ce162ddbddd0d7d964736f6c63430008140033","linkReferences":{}},"methodIdentifiers":{"commitGame(bytes32,string,bytes32)":"07cb4b2e","commitments(bytes32)":"839df945","dstackVerifier()":"4144a07c","gameCount()":"4d1975b4","gameServer()":"29cd564c","games(bytes32)":"f579f882","getGame(bytes32)":"73931bbf","getOutcome(bytes32)":"5d1a3b82","isWinner(bytes32,address)":"9cc19f5b","revealGame(bytes32,bool,bytes32,bytes,address[],uint256)":"b102bd59","setDstackVerifier(address)":"bcf27c93","verifyCommitment(bytes32)":"fc6326ce"},"id":20}